:100000000C9462000C948A000C948A000C948A0070
:100010000C948A000C948A000C948A000C948A0038
:100020000C948A000C948A000C948A000C948A0028
:100030000C948A000C948A000C948A000C948A0018
:100040000C9440090C948A000C948A000C948A0049
:100050000C948A000C948A000C948A000C948A00F8
:100060000C948A090C948A000000000024002700E8
:100070002A0000000000250028002B0000000000DE
:1000800023002600290004040404040404040202DA
:100090000202020203030303030301020408102007
:1000A0004080010204081020010204081020000012
:1000B0000008000201000003040700000000000027
:1000C0000000A90A11241FBECFEFD8E0DEBFCDBFCC
:1000D00011E0A0E0B1E0E6E9F8E302C005900D927E
:1000E000A43FB107D9F726E0A4EFB1E001C01D920B
:1000F000A93BB207E1F710E0C2E6D0E004C02197C7
:10010000FE010E940A1BC136D107C9F70E94BE0A30
:100110000C94491C0C94000008950895833081F0DC
:1001200028F4813099F08230A9F008958730A9F041
:100130008830C9F08430B1F4809180008F7D03C095
:10014000809180008F7780938000089584B58F77A9
:1001500084BD089584B58F7DFBCF8091B0008F77EB
:100160008093B00008958091B0008F7DF9CFCF9338
:10017000DF93282F30E0F901E255FF4F8491F90118
:10018000E656FF4FD491F901EA57FF4FC491CC23B3
:10019000A1F081110E948E00EC2FF0E0EE0FFF1F06
:1001A000E458FF4FA591B491EC91ED2381E090E0EC
:1001B00009F480E0DF91CF91089580E090E0FACFDC
:1001C0001F93CF93DF93282F30E0F901E255FF4FC3
:1001D0008491F901E656FF4FD491F901EA57FF4F98
:1001E000C491CC23A9F0162F81110E948E00EC2F10
:1001F000F0E0EE0FFF1FEE58FF4FA591B4918FB7BF
:10020000F894EC91111108C0D095DE23DC938FBFD8
:10021000DF91CF911F910895DE2BF8CFCF93DF931D
:1002200090E0FC01E656FF4F24918A579F4FFC0156
:1002300084918823C9F090E0880F991FFC01E85948
:10024000FF4FA591B491FC01EE58FF4FC591D49199
:1002500061110DC09FB7F8948C91209582238C93E7
:100260008881282328839FBFDF91CF910895623032
:1002700051F49FB7F8943C91822F809583238C93FF
:10028000E8812E2BEFCF8FB7F894EC912E2B2C9387
:100290008FBFEACF8E3008F08E50877080648093D5
:1002A0007C0080917A00806480937A0080917A004B
:1002B00086FDFCCF809178009091790008953FB73A
:1002C000F89480914D0690914E06A0914F06B09102
:1002D000500626B5A89B05C02F3F19F00196A11D19
:1002E000B11D3FBFBA2FA92F982F8827BC01CD0180
:1002F000620F711D811D911D42E0660F771F881FDF
:10030000991F4A95D1F708958F929F92AF92BF920D
:10031000CF92DF92EF92FF924B015C010E945F014E
:100320006B017C010E945F016C197D098E099F0998
:10033000683E734081059105A8F321E0821A910877
:10034000A108B10888EEC80E83E0D81EE11CF11C9C
:1003500081149104A104B10429F7FF90EF90DF907C
:10036000CF90BF90AF909F908F90089520914802BA
:10037000260F3327331F21323105ECF420917D06FF
:10038000FC0190E080E0243069F082E00895A091C3
:1003900048022191AC01485D5D4FA40FB52FB11DFE
:1003A0002C930196861798F380914802680F60930A
:1003B000480280E0089581E0089510927D0681E072
:1003C00080937C061092570661E082E10E94E00073
:1003D00061E083E10E94E000E9EBF0E080818E7F44
:1003E000808380818D7F808388E48093B80085E45A
:1003F0008093BC00089510925606109255061092F4
:1004000084061092A6060E94DD018CE890E090938D
:100410005406809353068DE890E0909352068093A3
:1004200051060895CF93DF9391E09093270288239C
:10043000B9F0C091B800D091BA008091BC008A7B1D
:100440008093BC0060E082E10E94E00060E083E114
:100450000E94E0000E94DD01D093BA00C093B80072
:10046000DF91CF9108958F929F92AF92BF92CF92DA
:10047000DF92EF92FF920F931F93CF93DF93D09170
:10048000A606D13208F0D7C0182FC091A5060E9449
:100490005F016B017C0180917D0681116BC082E060
:1004A00080937D0610937C068FEF80937B061092DD
:1004B0007A06D0937906A5E8B6E0E9E5F6E080E0B3
:1004C000D81391C01092580680915806CC0FC82BB3
:1004D000C093580680915706813009F088C0109269
:1004E00057060E945F016B017C0180915806809342
:1004F000BB0080917F0690918006A0918106B0910B
:100500008206892B8A2B8B2BA1F00E945F01009120
:100510007F061091800620918106309182066C1929
:100520007D098E099F09061717072807390708F460
:1005300042C08091BC0083FDD8CF85EC8093BC0085
:100540000E945F016B017C0180917D06823009F47D
:1005500050C080917B068F3F09F46FC080917B066D
:10056000803209F46CC080917B06803309F469C045
:1005700084E026C080917F0690918006A09181063C
:10058000B0918206892B8A2B8B2B09F484CF0E9491
:100590005F0180907F0690908006A0908106B090C9
:1005A00082066C197D098E099F0986169706A80692
:1005B000B90608F070CF80917E060E94120285E095
:1005C000109284061092A60610928306DF91CF91B6
:1005D0001F910F91FF90EF90DF90CF90BF90AF9061
:1005E0009F908F9008959D9191938F5F69CF85EE35
:1005F000A5CF80917F0690918006A0918106B09151
:100600008206892B8A2B8B2B09F49ECF0E945F01D7
:1006100000917F061091800620918106309182061C
:100620006C197D098E099F090617170728073907D6
:1006300008F08ACFC0CF81E0C3CF80E0C1CF82E095
:10064000BFCF83E0BDCFCF93DF93EC018B818823B5
:10065000A1F0888191E0909383068093A506109283
:1006600084061092A60681E00E94330291E0811177
:1006700090E0892FDF91CF9108950E94FB0181E0E6
:100680008B83CE010E942303982F8111E2CFF1CFFB
:100690000895E091560680915506E81730F4F0E091
:1006A000E95FFD4F808190E008958FEF9FEF0895FF
:1006B00090915606809155062FEF3FEF981748F41A
:1006C000E92FF0E0E95FFD4F208130E09F5F9093DC
:1006D0005606C90108958091550690915606891BCA
:1006E000990B0895CF92DF92EF92FF920F931F9391
:1006F000CF93DF937C01CB018A01209183062223D3
:1007000089F0EB016B01C40ED51ECC15DD0569F037
:100710006991D701ED91FC910190F081E02DC70125
:100720000995F3CF642F0E94B601C801DF91CF91E4
:100730001F910F91FF90EF90DF90CF900895CF938E
:10074000DF931F92CDB7DEB7698320918306222302
:10075000F9F02091A606203258F021E030E0FC01AB
:100760003383228390E080E00F90DF91CF91089552
:1007700080918406E82FF0E0EB57F94F9981908340
:100780008F5F809384068093A60681E090E0ECCF93
:1007900061E0CE0101960E94B601F7CF90E080E0C3
:1007A00008954091D2035091D3036CE0649F90016F
:1007B000659F300D11244091D4035091D503240F2F
:1007C000351F820F931F8133910514F00C97FBCFD7
:1007D00097FF02C00C96FCCF089586309105D1F0AA
:1007E00034F481309105F9F0039739F00895883099
:1007F000910599F00A97A1F0089581E090E06623B1
:10080000A9F09093E9058093E8051092B503109242
:10081000B403089582E090E0F2CF83E090E0EFCF60
:1008200084E090E0ECCF90E080E0E9CF9093F50198
:100830008093F40181E08093F6010895809146064B
:10084000882369F08091AD039091AE0383309105C8
:100850002CF401969093AE038093AD03089580919C
:100860004406882379F38091D2039091D303833097
:100870009105A4F701969093D3038093D203089532
:1008800080914606882369F08091AD039091AE0374
:10089000181619062CF401979093AE038093AD03BC
:1008A000089580914406882379F38091D203909132
:1008B000D30318161906A4F701979093D3038093D6
:1008C000D2030895CF93DF9300D01F92CDB7DEB748
:1008D0001092B9002CE02093B80020E429839C01F9
:1008E00094E0369527959A95E1F72A838295807F43
:1008F0008B83E091B306F091B406848195810397D0
:1009000038F480E00F900F900F90DF91CF91089511
:1009100081819281208131E0309383062093A50666
:10092000109284061092A606DC01ED91FC910280E3
:10093000F381E02D43E050E0BE016F5F7F4F0995EA
:100940000397F9F681E00E9433028111DACF109209
:10095000B90088E48093B80081E0D4CF4F925F92D1
:100960006F927F928F929F92AF92BF92CF92DF92BF
:10097000EF92FF92CF93DF93CDB7DEB728970FB6F4
:10098000F894DEBF0FBECDBF2091400630914106E6
:10099000409142065091430629833A834B835C83FE
:1009A00020E030E0A90169817A818B819C810E94DD
:1009B000841A18160CF094C0409003025090040260
:1009C0006090050270900602C090FF01D090000276
:1009D000E0900102F0900202A7019601C301B2016A
:1009E0000E94C318882309F47BC00E945F016D83B5
:1009F0007E838F8398878091FB019091FC01A09169
:100A0000FD01B091FE012D813E814F815885281B4B
:100A1000390B4A0B5B0BDA01C901843F9140A105F8
:100A2000B10508F45DC0A3019201C701B6010E949F
:100A300056184B015C0120E030E0A9010E94841AA5
:100A40001816CCF42FE632E143E85AE3C501B401AD
:100A50000E94841A1816CCF0C0920302D0920402AD
:100A6000E0920502F09206022FE338EA4FE454E4E4
:100A7000C701B60122C02FE632E143E85AEBC501B7
:100A8000B4010E94C31887FFE7CFA50194016981D3
:100A90007A818B819C810E94891AA30192010E9414
:100AA0005718609303027093040280930502909399
:100AB00006022FE338EA4FE454E40E94891A0E94A8
:100AC0003A19CB010E9462048D819E81AF81B88565
:100AD0008093FB019093FC01A093FD01B093FE0174
:100AE00028960FB6F894DEBF0FBECDBFDF91CF9131
:100AF000FF90EF90DF90CF90BF90AF909F908F903E
:100B00007F906F905F904F900895CF92DF92EF9219
:100B1000FF92C12CD12C76018133910558F4880FB6
:100B2000991F880F991FFC01EB57FD4FC080D180A2
:100B3000E280F380C092FF01D0920002E0920102B5
:100B4000F092020220E030E0A9016091400670912D
:100B5000410680914206909143060E94C31881117C
:100B600019C0C0920302D0920402E0920502F092F2
:100B700006022FE338EA4FE454E4C701B6010E94AD
:100B8000891A0E943A19CB01FF90EF90DF90CF9025
:100B90000C946204FF90EF90DF90CF900895CF9275
:100BA000DF92EF92FF928091F601882381F080918D
:100BB000B4039091B503892B51F48091F401909185
:100BC000F5019093E9058093E8051092F601E09114
:100BD0003B06F0913C06EE0FFF1FE15DF94F60818F
:100BE00071816115710571F08091E8059091E905B9
:100BF0008230910509F453C040F4009711F1019738
:100C000009F444C030E020E028C08330910509F4A5
:100C10006AC00497B9F76B01770FEE08FF08C1149B
:100C2000D104E104F10439F00E948517A70196016F
:100C30000E94F3176B019601D092B503C092B403E2
:100C40000CC02091B4033091B503C90101960E94F4
:100C5000F61A9093B5038093B403E0913B06F091AC
:100C60003C0685E0EE0FFF1F8A95E1F7E20FF31FC8
:100C7000EE0FFF1FEA5EFB4F808191810E94D1033E
:100C8000FF90EF90DF90CF900C9485052091B403F6
:100C90003091B503C9010197860F971FD8CF2091D6
:100CA000B4033091B50380910001882371F0C9012C
:100CB00001969093B5038093B40361507109861730
:100CC00097075CF210920001C8CFC9010197909379
:100CD000B5038093B403181619060CF4BECF81E057
:100CE00080930001BACF072E000C880B990B0E944D
:100CF00072196B017C012AE737E34EE15FE30E9442
:100D0000891A2091F7013091F8014091F901509131
:100D1000FA010E945718A70196010E94B819609322
:100D2000F7017093F8018093F9019093FA010E9402
:100D30003A199B017093B5036093B4038ECF0F9360
:100D40001F93CF93DF938C01EB010E94DD17888303
:100D5000C80101960E94DD178983CE01DF91CF91F2
:100D60001F910F9108952F923F924F925F926F9231
:100D70007F928F929F92AF92BF92CF92DF92EF922B
:100D8000FF920F931F93CF93DF9300D000D000D03A
:100D9000CDB7DEB7BE016B5F7F4F8AEC90E00E945B
:100DA0009F068D819E8189339043A9F11092300670
:100DB00010922F06109232061092310610923406CD
:100DC00010923306109236061092350610923806AD
:100DD0001092370610923A061092390610922D069C
:100DE00010922C0626960FB6F894DEBF0FBECDBF2C
:100DF000DF91CF911F910F91FF90EF90DF90CF90F7
:100E0000BF90AF909F908F907F906F905F904F902A
:100E10003F902F9008957FE2E72E76E0F72E912CF9
:100E2000812C8CEC90E010E000E05C01E2E0AE0E82
:100E3000B11CF1E0AF16F4E0BF0678F5B7010E94EF
:100E40009F06F701808191818032910514F080E244
:100E500090E0F70191838083D12CC12CC501F7016B
:100E600020813181C216D30664F4F2E0AF0EB11CCA
:100E700021E0A21624E0B20608F48FC0F701D18267
:100E8000C0820F5F1F4F22E0E20EF11CE0E28E0EE7
:100E9000911C0630110549F607C0000F111FF8011B
:100EA000E15DF94F118210828C010E5F1F4F0130FE
:100EB000F4E01F0708F092CFBE016D5F7F4F0E94E4
:100EC0009F06CB80DC8020E1C216D1041CF040E1FB
:100ED000C42ED12CD0922D06C0922C06C601880FAC
:100EE000991F8032910509F065C096ED692E93E057
:100EF000792E2AEE222E25E0322EF12CE12CEC1454
:100F0000FD040CF06FCF580182E0A80EB11CE1E0A7
:100F1000AE16E4E0BE0608F063C02701440C551C81
:100F2000B201665F794FC8010E949F064801F4E054
:100F30008F0E911C21E0821624E0920608F050C02A
:100F4000B2016A507C4FC5010E949F06580186E09D
:100F5000A80EB11CE1E0AE16E4E0BE0608F040C009
:100F6000BE016F5F7F4FC4010E949F0689819A81F5
:100F7000F101819391931F01085F1F4F0130F4E04D
:100F80001F0770F5B301C5010E949F062FEFE21AFB
:100F9000F20A82E0680E711CB2CFB601680D791DAD
:100FA000660F771F6A5E7B4F0E949F06FFEFCF1A86
:100FB000DF0A54CFFC01E65FF94F11821082FC0179
:100FC000EA50FC4F11821082FC01E651FA4F118267
:100FD0001082FC01EA52FC4F11821082029681CFEE
:100FE000F0922D06E0922C06FDCEFF920F931F93F8
:100FF000CF93DF93EC018B01FB01F0800E94DD17A2
:10100000F81621F06F2DCE010E94E517F801F1804E
:101010002196CE010E94DD17F81621F06F2DCE012A
:101020000E94E517C801DF91CF911F910F91FF90AA
:1010300008952F923F924F925F926F927F928F927C
:101040009F92AF92BF92CF92DF92EF92FF920F9357
:101050001F93CF93DF9300D000D0CDB7DEB762ED02
:1010600071E08AEC90E00E94F5075FE2C52E56E041
:10107000D52EB12CA12C6CECE62EF12CF601808142
:1010800091810196880F991F8E0D9F1D81159440A7
:101090000CF0A7C02CECE216F1040CF4A2C0B601CF
:1010A000C7010E94F50787010E5F1F4F912C812C0D
:1010B0007801F6018081918188169906CCF40C3C68
:1010C00011050CF48EC00E5F1F4F0115F4E01F07D1
:1010D00008F087C0B4016A0D7B1D660F771F6A5E3A
:1010E0007B4FC7010E94F5072FEF821A920AE0CFCB
:1010F00032E0C30ED11C80E2A80EB11CE0ECAE16AB
:10110000B10409F0BBCF80912C0690912D0680315F
:10111000910514F080E190E09C838B8323E0880F9D
:10112000991F2A95E1F70296800F911F811594402F
:101130000CF057C00C3C11050CF453C0BE016D5FA0
:101140007F4FC8010E94F507C8010296512C412C1F
:10115000312C212C2B813C81221633060CF041C00E
:1011600092012A503C4F4901F201E65FF94F6F01AD
:1011700092012A523C4F590110E000E0F201E65181
:10118000FA4F3F018C3C910564F17C01F2E0EF0ED7
:10119000F11CE11424E0F20620F502301105C1F043
:1011A000B5010330110529F0B6010130110509F42C
:1011B000B4010E94F507C7010F5F1F4F04301105EE
:1011C00009F7FFEF2F1A3F0A22E0420E511CC2CF4F
:1011D000F301208131813A832983BE016F5F7F4F04
:1011E000E8CF0F900F900F900F90DF91CF911F914C
:1011F0000F91FF90EF90DF90CF90BF90AF909F90B6
:101200008F907F906F905F904F903F902F900895B8
:1012100085ED8093BC0080917F0690918006A0911F
:101220008106B09182060796A11DB11D23E0B695F7
:10123000A795979587952A95D1F72091BC0024FD15
:1012400003C010927D06089540917F06509180065C
:101250006091810670918206452B462B472B69F3DE
:101260000097A105B10541F02AE22A95F1F700C0E7
:101270000197A109B109E1CF80917E060C94120279
:101280001F920F920FB60F9211242F933F938F93BB
:101290009F93AF93BF938091490690914A06A09186
:1012A0004B06B0914C063091480623E0230F2D37B2
:1012B00058F50196A11DB11D20934806809349065B
:1012C00090934A06A0934B06B0934C0680914D062E
:1012D00090914E06A0914F06B09150060196A11D27
:1012E000B11D80934D0690934E06A0934F06B09388
:1012F0005006BF91AF919F918F913F912F910F9089
:101300000FBE0F901F90189526E8230F0296A11D7F
:10131000B11DD2CF1F920F920FB60F9211242F93AF
:101320003F934F935F936F937F938F939F93AF936D
:10133000BF93EF93FF938091B900887F803609F4C3
:101340004AC0F0F5883209F4A7C018F5803109F4D5
:101350009BC0B8F4882309F4F9C0883009F494C01C
:10136000FF91EF91BF91AF919F918F917F916F917D
:101370005F914F913F912F910F900FBE0F901F9053
:101380001895883109F488C0803251F780937B0624
:1013900014C0803409F49DC040F48033B9F388331D
:1013A000F9F680937B0685ECB0C0803509F485C0E2
:1013B000883509F496C0883499F60E940809D0CF80
:1013C000883909F48CC038F5883729F050F488360C
:1013D00011F0803729F683E080937D0610926A022F
:1013E00057C0883809F47BC0803919F0803809F07B
:1013F000B7CF80916A02803208F071C0E0916A0232
:1014000081E08E0F80936A028091BB00F0E0E65B82
:10141000FD4F80833DC0803B39F0E0F4803A09F411
:1014200079C0883A09F09CCF84E080937D061092C1
:10143000490210924802E0915306F0915406099532
:101440008091480281110FC081E080934802109280
:10145000280209C0803C09F4A6CF883C09F4A3CF38
:10146000883B09F07DCFE091490281E08E0F8093A7
:101470004902F0E0E85DFD4F80818093BB009091D0
:1014800049028091480229C0809158068093BB0090
:1014900085EC8093BC0064CF90917A0680917906A8
:1014A000981758F5E0917A0681E08E0F80937A06BE
:1014B000F0E0E75AF94F8081E9CFE0917A0681E0C8
:1014C0008E0F80937A068091BB00F0E0E75AF94FC7
:1014D000808390917A06809179069817C8F285E802
:1014E000D8CFE0917A0681E08E0F80937A068091C2
:1014F000BB00F0E0E75AF94F808380917C068111B0
:101500005CCF81E08093570684EA8093BC00109200
:101510007D0626CF85EC8093BC0010927D068091DD
:101520006A02803230F4E0916A02F0E0E65BFD4F3F
:10153000108260916A0270E0E0915106F0915206CB
:101540008AE492E0099510926A020ACF10927B0613
:1015500034CFE7EAF6E01382128288EE93E0A0E04F
:10156000B0E084839583A683B78386EE91E0918370
:1015700080831092B4061092B3060895CF93DF9340
:10158000CDB7DEB7C055D1090FB6F894DEBF0FBE98
:10159000CDBF789484B5826084BD84B5816084BDFC
:1015A00085B5826085BD85B5816085BD80916E0001
:1015B000816080936E001092810080918100826032
:1015C000809381008091810081608093810080916F
:1015D00080008160809380008091B100846080935E
:1015E000B1008091B00081608093B00080917A005A
:1015F000846080937A0080917A00826080937A0080
:1016000080917A00816080937A0080917A0080686E
:1016100080937A001092C1000E94FB018091B30672
:101620009091B406009711F00E94C01B86E090E0F4
:101630000E94241B8C0180E6D8018C9387EA96E0F7
:1016400012969C938E93119713961C92139780E297
:1016500090E015969C938E9314971093B406009384
:10166000B3060E94FB0181E0F8018383C8010E9458
:1016700023030BED11E022EEC22E21E0D22E62E018
:10168000D8018D918D010E940E01EEEDF1E02B96B7
:10169000FFAFEEAF2B972B96AEADBFAD2B97FD9066
:1016A0002B96BFAFAEAF2B9761E08F2D0E940E013E
:1016B00061E08F2D0E94E0002B968EAC9FAC2B97A3
:1016C000C814D90441F721E00E3D1207C1F660E0CD
:1016D0008BE00E940E0162E08CE00E940E0162E04D
:1016E00089E00E940E0162E08AE00E940E0161E042
:1016F0008DE00E940E018FB7F894C0904906D090FB
:101700004A06E0904B06F0904C068FBF2FB7F89436
:101710008091490690914A06A0914B06B0914C06E3
:101720002FBF8C199D09AE09BF09803D9740A105C7
:10173000B105E0F489E00E94B7008C018AE00E94C4
:10174000B7005C018CE00E94B700012B11F00C94F3
:101750001816AB2811F00C941B1681E080934706F5
:101760008093530361E08BE00E94E000E6EFF3E03A
:10177000AAEEB5E086E194E0119211921D921D92BD
:101780008E179F07C9F768ED75E086E995E028EEAA
:1017900035E0FB0141E04193DC011D921D921D9259
:1017A0001D92CD012E173F07B1F781E0DB018D932C
:1017B000BD01AE17BF07D1F7E6EDF3E0119211922C
:1017C000B3E0E63FFB07D1F7BE016D5B7F4F90E0D2
:1017D00080E00E949F0625968EAD9FAD25978933A8
:1017E000904391F166ED71E090E080E00E94F50792
:1017F00098E0E92EF12C8701045011099701275038
:101800003F4F6901D601BD906D01C8010E94DD17EF
:10181000B81621F06B2DC8010E94E5170F5F1F4F0E
:101820000E151F0579F77801B4E0EB0EF11CECEC16
:10183000EE16F10401F71A821982BE016F5F7F4F25
:1018400088EC90E00E94F507BE016F5B7F4F88EC4B
:1018500090E00E949F0623968EAD9FAD2397823322
:10186000994009F440C0B5E8EB2EB2E0FB2E04E04D
:1018700010E084E0682E712C98012B573D4F5901E0
:10188000670148018E189F08C4018C0D9D1D0E94A0
:10189000DD17D6018D936D01AA16BB06A9F7F701D6
:1018A00061917191819191917F0120E030E04AE74F
:1018B00054E40E94891A0E943A197A836983BE010E
:1018C0006F5F7F4FC3010E94F507F2E06F0E711C3E
:1018D0000C5F1F4F083C110579F664ED71E088EC50
:1018E00090E00E94F507A5E8EA2EA2E0FA2E04E0B7
:1018F00010E0BE016F5F7F4FC8010E949F066981A3
:101900007A81072E000C880B990B0E94721920E037
:1019100030E04AE754E40E94C818D7016D937D93E4
:101920008D939D937D010E5F1F4F0636110509F7BC
:10193000BE016D5B7F4F90E080E00E949F06259680
:101940008EAD9FAD259789339043E9F5BE016F5B5E
:101950007F4F88EC90E00E949F0623968EAD9FAD4E
:1019600023978233994079F504E010E0BE016F5F60
:101970007F4FC8010E949F0669817A81072E000C63
:10198000880B990B0E94721920E030E04AE754E47A
:101990000E94C8186B017C0120E030E040E05FEB62
:1019A0000E94C31887FD0FC020E030E040EA50E4F9
:1019B000C701B6010E94841A18162CF00E5F1F4F43
:1019C0000636110599F680914606811102C00E94E3
:1019D000B3068FB7F8944090490650904A0660903D
:1019E0004B0670904C068FBF80914706882309F400
:1019F00083C28FB7F894C0904906D0904A06E09011
:101A00004B06F0904C068FBF89E00E94B700892BEF
:101A100009F0C6C18AE00E94B700892B09F0C0C155
:101A20008091550390915603A0915703B0915803AC
:101A300046015701881A990AAA0ABB0AD501C401AE
:101A4000813D9740A105B10508F0B5C189E00E942C
:101A5000B700892B71F58AE00E94B700892B49F104
:101A600080914F0390915003A0915103B091520384
:101A700046015701881A990AAA0ABB0AD501C4016E
:101A8000893C9105A105B105A0F080914D0390918D
:101A90004E03843091052CF4019690934E0380936D
:101AA0004D03C0924F03D0925003E0925103F09245
:101AB00052038AE00E94B700892B31F489E00E942A
:101AC000B700892B09F08FC11092490310924A0385
:101AD00010924B0310924C036DE6A62E62E0B62ED8
:101AE0007EED672E71E0772E10E000E0E0E38E2EB1
:101AF000912CF30141903F0160E0842D0E94E000B1
:101B000065015BED252E51E0352EF12CE12CD10144
:101B10008D911D010E94B70055245394009709F040
:101B2000512C892B09F047C0F60180819181892BC6
:101B300009F041C020914D0330914E03C701880F39
:101B4000991F880F991F800F911FFCE0F29FA00141
:101B5000F39F500D1124840F951F90936C02809376
:101B60006B022430310551F4E114F10439F401150C
:101B7000110521F490926C0280926B0280916B02AD
:101B800090916C0281339105B0F4880F991F880FF2
:101B9000991FFC01EB57FD4F2FE338EA4FE454E463
:101BA00060817181828193810E94891A0E943A1911
:101BB000CB010E946204852D90E0D6018D939C9309
:101BC000BFEFEB1AFB0AE8E0CE0ED11CF3E0EF16F4
:101BD000F10409F09CCF61E0842D0E94E0000F5FCA
:101BE0001F4F22E0A20EB11C0430110509F081CF75
:101BF0008CE00E94B700892B09F076C0E0906B0260
:101C0000F0906C023FEFE316F30609F46DC0870114
:101C1000000F111F000F111FF801EF5FFE4F8080B2
:101C20009180A280B3808EE00E944A01BC01990F8E
:101C3000880B990B0E94721920E030EC4FE754E4B6
:101C40000E94C81820E030E040E85EE30E94891A54
:101C500020E030E040E05EE30E945618A5019401C8
:101C60000E9457184B015C01E114F10409F030C1E6
:101C700020E030E0A9010E94841A18161CF0812C83
:101C8000912C5401F801EB57FD4F80829182A28282
:101C9000B3822FE338EA4FE454E4C501B4010E9453
:101CA000891A0E943A19CB010E94620420E030E0B8
:101CB0004AE754E4C501B4010E94891A0E943A1906
:101CC0007A83698380916B0290916C020296BE01C7
:101CD0006F5F7F4F880F991F0E94F5078FEF9FEF6F
:101CE00090936C0280936B0280E090E0892B09F462
:101CF00070CE0E9400006DCEAB2809F49CC781E035
:101D00008093460661E08BE00E940E0160E08BE06C
:101D10000E94E0008FE593E04FE853E06FE873E046
:101D2000FC0130E020E01192119211921192DA013F
:101D3000A20FB31F1C922F5F3F4F2430310599F73C
:101D400040964C5F5F4F6817790751F710925A031E
:101D500010925B0310925C0310925D0310925E037D
:101D600061E08BE00E94E00064E670E080E090E0DB
:101D70000E94840160E08BE00E94E00064E670E075
:101D800080E090E00E94840161E08BE00E94E0002E
:101D900064E670E080E090E00E94840160E0E3CCC3
:101DA000C0925503D0925603E0925703F092580325
:101DB000109254034BCE80915403811147CE609111
:101DC000530381E0682760935303809354038BE0AF
:101DD0000E94E000C0925503D0925603E092570350
:101DE000F092580333CE80914F0390915003A0910D
:101DF0005103B0915203A7019601281B390B4A0BDE
:101E00005B0BDA01C901893C9105A105B105A0F080
:101E100080914D0390914E03181619062CF40197EA
:101E200090934E0380934D03C0924F03D092500382
:101E3000E0925103F09252038091490390914A033A
:101E4000A0914B03B0914C030097A105B10549F453
:101E5000C0924903D0924A03E0924B03F0924C03A4
:101E60003BCEC81AD90AEA0AFB0A31E4C3163FE19D
:101E7000D306E104F10408F42FCE84ECE1E0F1E0B4
:101E8000A5E8B2E001900D928A95E1F7F1E0EF2E1E
:101E9000F1E0FF2E04E010E0D7016D917D918D916E
:101EA0009D917D0120E030E04AE754E40E94891AC8
:101EB0000E943A197A836983BE016F5F7F4FC80120
:101EC0000E94F5070E5F1F4F0636110529F7FCCD5E
:101ED00040E3E416F10409F0D5CE20E030E040E81C
:101EE00050E40E94C31887FDCDCE812C912CF0E8E0
:101EF000AF2EF0E4BF2EC6CED090AB038091460645
:101F0000882309F48CC110929B0389E00E94B700DA
:101F10007C01CC24C394892B09F0C12C8AE00E9457
:101F2000B7008C01BB24B394892B09F0B12CEF28A6
:101F300009F089C6D11008C04092A7035092A803A7
:101F40006092A9037092AA038091A7039091A803BD
:101F5000A091A903B091AA03A3019201281B390BF8
:101F60004A0B5B0BDA01C9018C329140A105B10526
:101F700018F081E08093B1038091A603012B09F052
:101F800075C6811108C04092A2035092A3036092CB
:101F9000A4037092A5038091A2039091A303A09142
:101FA000A403B091A503A3019201281B390B4A0B8E
:101FB0005B0BDA01C9018C329140A105B10518F023
:101FC00081E08093B003C092AB03B092A6035FE5BB
:101FD000A52E53E0B52E6FE8C62E63E0D62E7EED1B
:101FE000272E71E0372ED1018D901D0160E0882DE4
:101FF0000E94E00075018601EBEDF1E02796FFAF4E
:10200000EEAF27972796AEADBFAD27978D91279658
:10201000BFAFAEAF27970E94B700BC01992493943D
:10202000892B09F0912CF8012081921651F1D701EA
:102030002D913D914D915C91D301C201821B930B77
:10204000A40BB50B4A97A105B105D8F0672B89F40D
:102050008091AD039091AE03ACE0A89F9001A99F41
:10206000300D1124C8018F589340820F931F0E9496
:102070008505F8019082D7014D925D926D927C9218
:102080001397F8018081882319F0F1E0F0939B0306
:102090000C5F1F4F20E1E20EF11C27964EAD5FADA5
:1020A00027974E5D514009F0ADCF61E0882D0E9429
:1020B000E0008FEFC81AD80A94E0A90EB11C2B9645
:1020C0008EAC9FAC2B972814390409F08CCF8CE090
:1020D0000E94B70011E0009709F010E020915E0324
:1020E000121791F140915A0350915B0360915C0388
:1020F00070915D0363015201A41AB50AC60AD70A9A
:10210000B601A5014A31510561057105E8F0892B39
:1021100089F48091AD039091AE038330910508F06E
:1021200067C088529E4FDC018C91082E000C990BE1
:102130000E94850510935E0340925A0350925B0300
:1021400060925C0370925D0380915E03882319F0B6
:1021500081E080939B0310919B0380915903181792
:1021600031F0612F8BE00E94E000109359038EE064
:102170000E944A0180319105F4F5109240061092B8
:10218000410610924206109243060E94AE04ACCD66
:102190008091C2039091C303A091C403B091C50381
:1021A000A3019201281B390B4A0B5B0BDA01C90111
:1021B000C397A105B10508F450C50E941E044DC582
:1021C0008091C2039091C303A091C403B091C50351
:1021D000A3019201281B390B4A0B5B0BDA01C901E1
:1021E000C397A105B10508F44BC50E94400448C53A
:1021F00080E390E09DCF9C01813293400CF4E0C4D9
:1022000020E233E0DDC4C12CD12C7601C09240061F
:10221000D0924106E0924206F0924306B6CF8CE09F
:102220000E94B7009C0161E0892B09F060E0909169
:10223000C501232B09F02DC591115CC08091A0032D
:10224000882309F43DC180919C0390919D03A09146
:102250009E03B0919F0353014201881A990AAA0A6A
:10226000BB0AD501C4018C329140A105B10508F02B
:1022700027C180912E06882309F419C18091B203E9
:102280009091B303803191059CF59C01220F331F7F
:10229000F901E65FF94F40913B0650913C065183AE
:1022A0004083F901EA50FC4F4091D4035091D5038B
:1022B00051834083F901E651FA4F4091E80550916E
:1022C000E905518340832A523C4F4091D2035091FB
:1022D000D303D9014D935C9301969093B3038093FC
:1022E000B20390932D0680932C0681E08093A10386
:1022F0001092A0036093C50189E00E94B7008C0191
:10230000B1E02696BFAF2697892B19F026961FAE0F
:1023100026978AE00E94B7001C01E1E02896EFAF03
:102320002897892B19F028961FAE28978CE00E94D9
:10233000B7007C010115110509F0C5C4D11008C012
:102340004092A7035092A8036092A9037092AA0337
:102350008091A7039091A803A091A903B091AA032B
:1023600053014201881A990AAA0ABB0AD501C4017D
:102370008C329140A105B10518F081E08093B10342
:102380008091A6032114310409F0B0C4811108C062
:102390004092A2035092A3036092A4037092A503FB
:1023A0004091A2035091A3036091A4037091A503EF
:1023B00053014201841A950AA60AB70AB501A4017D
:1023C0004C3251406105710518F091E09093B003D3
:1023D000EF2809F09DC44091C2035091C30360915E
:1023E000C4037091C50353014201841A950AA60AD9
:1023F000B70AB501A401433351056105710508F41D
:1024000087C4012B09F09FC0D1109DC08091AF03FC
:10241000811104C080912E06882371F08091AC0355
:10242000811104C08091A103882331F00E94190812
:102430001092AC031092A1038091AF03811104C0EC
:1024400080912E06882371F08091AC03811104C025
:102450008091A103882331F00E9419081092AC03E7
:102460001092A10381E0809344061092AF03109272
:10247000B5031092B40380913B0690913C060697F9
:1024800021F080912E06882379F086E0A82EB12CC9
:10249000B0923C06A0923B0610922B0610922A06A0
:1024A0001092D7051092D60510922E0631C4809155
:1024B0004406882309F41ECF81E0809345061ACF95
:1024C00040929C0350929D0360929E0370929F03E2
:1024D00081E08093A0030ECF8091C2039091C3034B
:1024E000A091C403B091C50353014201881A990A0F
:1024F000AA0ABB0AD501C401C397A105B10508F416
:10250000ECC3E114F10409F4E8C30E941E04E5C31E
:102510008091C2039091C303A091C403B091C503FD
:1025200063015201A81AB90ACA0ADB0AD601C50119
:10253000C397A105B10508F4E3C3EF2809F4E0C38C
:102540000E944004DDC32114310409F0E1C381116C
:10255000DFC380912E069091AF03911156C488235A
:1025600099F10E94B30606E0C02ED12CD0923C0611
:10257000C0923B061092AC031092A10381E08093BD
:1025800044061092AF0390CFF701EE0FFF1FE15DFD
:10259000F94F3183208316E0EE0CFF1C1A95E1F70A
:1025A000221633063CF7D4018D919D914D01F10126
:1025B000EE0FFF1FEE0DFF1DEA5EFB4F9183808340
:1025C000BFEF2B1A3B0AECCF21E02093AF03109210
:1025D000440680913B0690913C0686309105A9F413
:1025E00020932E061092B3031092B20310923C0671
:1025F00010923B061092B5031092B4031092D503CB
:102600001092D4032093440683C3880F991FFC01C2
:10261000E15DF94F118210821092B5031092B4035C
:1026200077C3ECE0CE16D104E8F4F601E65EFC4E8A
:102630000C940A1B26133213D6133213DD13E41342
:102640003213EB133213F2133213F91310923C06C8
:1026500010923B0680914406811106C180912E069E
:10266000811102C121E02796EEADFFAD27972083AF
:102670004092C2035092C3036092C4037092C50398
:10268000F701B082F4E0EF0EF11C24E0C20ED11C81
:10269000C814D90409F06EC361E08A2D0E94E000DD
:1026A0000F5F1F4F0430110509F048C38BE00E94F3
:1026B000B70077247394009709F4712C892B09F4DF
:1026C000CDC180913F068111C9C180913D06909195
:1026D0003E06019690933E0680933D062091C601EA
:1026E0003091C701821793070CF4B8C110923E06CF
:1026F00010923D0680914406882309F43BC28091E4
:102700003B0690913C068630910509F025C2409128
:102710002C0650912D06CA010197409708F09EC1E2
:10272000E0902A06F0902B0630E1E316F1041CF04D
:10273000AFE0EA2EF12CF0922B06E0922A06C701B8
:10274000880F991FFC01E65FF94FC080D18066E0D9
:10275000C616D10408F0F2C14601880C991CF40198
:10276000E15DF94F00811181101611060CF0E6C1F0
:1027700086519A4FDC01AD90BC90B092E905A092D1
:10278000E805B2E0AB16B10409F4FDC008F0E8C0FA
:10279000F1E0AF16B10409F49CC18091D605909187
:1027A000D705B8010E94F61ABC0103C121E030E050
:1027B00030933C0620933B064DCF42E050E05093CF
:1027C0003C0640933B0646CF83E090E090933C0666
:1027D00080933B063FCFA4E0B0E0B0933C06A093CB
:1027E0003B0638CFE5E0F0E0F0933C06E0933B0693
:1027F00031CF80912E068823E1F18091B203909130
:10280000B303181619060CF02DCF01979093B3035C
:102810008093B20390932D0680932C06880F991F06
:10282000FC01E65FF94F2081318130933C06209313
:102830003B06FC01EA50FC4F208131813093D503E7
:102840002093D403FC01E651FA4F2081318130936B
:10285000E9052093E8058A529C4FDC018D919C91FB
:102860009093D3038093D2031092B5031092B403D4
:10287000F9CEE6E0F0E0F0933C06E0933B06809171
:102880004406882309F4EECE10922B0610922A06F5
:102890001092D7051092D605E5CE2091B10360E0E5
:1028A0002111AFC22091B0032111AAC220912E069E
:1028B000222339F0F7E0CF16D1040CF446C00C9770
:1028C00044C02091AD033091AE034CE0429FC00163
:1028D000439F900D11248C0D9D1D2091AF03222349
:1028E00041F1E0913B06F0913C06AF01440F551FCA
:1028F000DA01A15DB94F2D913C911197203231053C
:102900000CF0B0CE45E0EE0FFF1F4A95E1F7E20F65
:10291000F31FEE0FFF1FEA5EFB4F918380832F5F53
:102920003F4F2D933C93B1E0B093AC030E948505DB
:1029300099CE209144062223C9F36CE070E00E94F6
:10294000F61A873091050CF0BACF9093D503809397
:10295000D40388CE2796AEADBFAD27971C9288CE04
:1029600023E0A216B10409F4BEC034E0A316B104FA
:1029700009F013CF0E9485179801110F440B550BD6
:102980000E94F31716C06091D6057091D705D70144
:10299000A852BA4F8C91882309F47BC06017710745
:1029A00044F01C92B801615071091092D705109241
:1029B000D605F60155E0EE0FFF1F5A95E1F7E60F39
:1029C000F71FEE0FFF1FEA5EFB4F80819181209180
:1029D0002A0630912B0620313105A4F4220F331F33
:1029E000F901EA52FC4F408151812A503C4FF901D4
:1029F000208131813093D5032093D4035093D303A6
:102A00004093D2030E94D1030E9485058091D60590
:102A10009091D70501969093D7058093D605F2E063
:102A2000AF16B104D9F0F401E15DF94F2081318195
:102A3000821793079CF01092D7051092D6058091CB
:102A40002A0690912B06019660912C0670912D0616
:102A50000E94F61A90932B0680932A0670923F06E6
:102A60008EE00E944A0120914506222309F49EC06F
:102A700020914406222309F499C0843021E0920772
:102A80000CF084C081E090E09093C7018093C60170
:102A90007CCB601771073CF401501109A801461B5B
:102AA000570BBA0186CF21E02C931092D7051092D4
:102AB000D605C7010196BA010E94F61A90932B061B
:102AC00080932A0688529A4FDC012C9370E060E0D4
:102AD00070CFB801615071094091D6055091D7056A
:102AE000641B750B66CFB801110F880B990B0E9400
:102AF00072191B012C018701000F111F000F111FFC
:102B00000A561A4F2AE737E34EE15FE3C201B101EB
:102B10000E94891AF80120813181428153810E94EB
:102B20005718A20191010E94B819D8016D937D93A5
:102B30008D939C9313970E943A193BCFC70101963E
:102B4000BA010E94F61A90932B0680932A061092DF
:102B5000D7051092D60582CF880F991FFC01E15D41
:102B6000F94F80819181181619060CF077CF0E94D9
:102B7000CF0574CF80912E06882309F46FCFE091A2
:102B80003B06F0913C06EE0FFF1FE9CF823132E0A9
:102B900093071CF482E090E077CF803293401CF4DE
:102BA00084E090E071CF88E090E06ECF80319105B5
:102BB0000CF4E3CA9C01213293E039070CF020CBDE
:102BC000032E000C440B550B2C5F33404109510977
:102BD000A4E6B0E00E94121824E13CEF4FEF5FEF53
:102BE0000E94F317CA01B9010E94721920E030EC6B
:102BF0004FE754E40E94C8186B017C0120E030E0EC
:102C0000A9010E94C31887FDFECA2DEC3CEC4CECD8
:102C10005DE3C701B6010E94841A18160CF0F6CACB
:102C20008DECC82E8CECD82EED2C8DE3F82EEECA50
:102C3000892B09F461C862E370E080E090E00E94B3
:102C400084010C94860BDD2009F496C98091B103B0
:102C5000882309F49DCA1092B1034092C203509296
:102C6000C3036092C4037092C50386C9882309F424
:102C7000AAC98091B003882309F4A2CA1092B003B4
:102C80004092C2035092C3036092C4037092C50382
:102C90009AC991111092450680919C0390919D03D1
:102CA000A0919E03B0919F0353014201881A990A93
:102CB000AA0ABB0AD501C4018D329140A105B10514
:102CC00008F016CB17CBDD2009F45ACB8091B10365
:102CD000882309F401CC1092B1034092C2035092B0
:102CE000C3036092C4037092C5034ACB882309F4DE
:102CF0006FCB8091B003882309F40ACC1092B00303
:102D00004092C2035092C3036092C4037092C50301
:102D100026968FAC26978092AB0328969FAC289777
:102D20009092A6038CE00E94B7001C012EED31E0CA
:102D300029963FAF2EAF299710E000E02996AEAD5F
:102D4000BFAD2997AD902996BFAFAEAF299760E090
:102D50008A2D0E94E0006801F801EA53FC4F7F01D0
:102D60004801FCE08F0E911C2BED31E02D963FAF1A
:102D70002EAF2D972D96AEADBFAD2D978D912D9683
:102D8000BFAFAEAF2D970E94B700BC01BB24B39478
:102D9000892B09F0B12CF7012081B21609F470CC0F
:102DA0002091C2033091C3034091C4035091C503E5
:102DB000D301C201821B930BA40BB50BC397A105D2
:102DC000B10508F45DCCD601AA54BC4F2796BFAF1D
:102DD000AEAF2797672B09F0BDCD8C91811148CC00
:102DE000C6012114310409F058CD8D7F8130910541
:102DF00039F0B6E0CB16D10419F0089709F011CCE0
:102E000061E0C6010E94ED032DCC8111AACBE090B8
:102E10003B06F0903C0682E48E9D80018F9D100D54
:102E20001124BE016F5B7F4FC80184539F4F0E94E6
:102E30009F069E012F5F3F4F49016901B12CA12CD4
:102E4000021B130B02531F4FC8018C0D9D1D2396AF
:102E50002EAD3FAD2397A216B3060CF095CBB6016D
:102E60000E949F063FEFA31AB30A42E0C40ED11C92
:102E7000EBCF8F929F92AF92BF92CF92DF92EF9261
:102E8000FF92CF93DF93EC01688179818A819B81E6
:102E9000611571058105910521F464E279ED8BE5F9
:102EA00097E02DE133EF41E050E00E94F317490134
:102EB0005A019B01AC01A7EAB1E40E9412186B0110
:102EC0007C01ACEEB4EFA50194010E942018C60E5F
:102ED000D71EE81EF91EF7FE06C081E0C81AD10809
:102EE000E10880E8F80AC882D982EA82FB82C70139
:102EF000B6019F77DF91CF91FF90EF90DF90CF9059
:102F0000BF90AF909F908F9008958F929F92AF92B5
:102F1000BF92CF92DF92EF92FF926091C8017091C1
:102F2000C9018091CA019091CB016115710581059C
:102F3000910521F464E279ED8BE597E02DE133EF23
:102F400041E050E00E94F31749015A019B01AC0196
:102F5000A7EAB1E40E9412186B017C01ACEEB4EF59
:102F6000A50194010E942018C60ED71EE81EF91E66
:102F7000F7FE06C081E0C81AD108E10880E8F80A27
:102F8000C092C801D092C901E092CA01F092CB016F
:102F9000C701B6019F77FF90EF90DF90CF90BF9071
:102FA000AF909F908F9008956093C8017093C9016E
:102FB0008093CA019093CB010895F999FECF92BDF9
:102FC00081BDF89A992780B50895262FF999FECFEB
:102FD0001FBA92BD81BD20BD0FB6F894FA9AF99A36
:102FE0000FBE01960895052E97FB1EF400940E94D3
:102FF0000A1857FD07D00E94251807FC03D04EF48D
:103000000C940A1850954095309521953F4F4F4F9D
:103010005F4F089590958095709561957F4F8F4F84
:103020009F4F08950E944718A59F900DB49F900D43
:10303000A49F800D911D11240895B7FF0C941218C0
:103040000E941218821B930B0895A1E21A2EAA1B4C
:10305000BB1BFD010DC0AA1FBB1FEE1FFF1FA21748
:10306000B307E407F50720F0A21BB30BE40BF50B45
:10307000661F771F881F991F1A9469F760957095CE
:10308000809590959B01AC01BD01CF010895A29F51
:10309000B001B39FC001A39F700D811D1124911D2C
:1030A000B29F700D811D1124911D08955058BB27AA
:1030B000AA270E946E180C944A1A0E943C1A38F0F3
:1030C0000E94431A20F039F49F3F19F426F40C941F
:1030D000391A0EF4E095E7FB0C94251AE92F0E94AB
:1030E0005B1A58F3BA17620773078407950720F035
:1030F00079F4A6F50C947D1A0EF4E0950B2EBA2FF8
:10310000A02D0B01B90190010C01CA01A0011124ED
:10311000FF27591B99F0593F50F4503E68F11A1699
:10312000F040A22F232F342F4427585FF3CF46952A
:1031300037952795A795F0405395C9F77EF41F164C
:10314000BA0B620B730B840BBAF09150A1F0FF0F16
:10315000BB1F661F771F881FC2F70EC0BA0F621F02
:10316000731F841F48F4879577956795B795F795F2
:103170009E3F08F0B0CF9395880F08F09927EE0F87
:103180009795879508950E94011A08F481E00895A3
:103190000E94DC180C944A1A0E94431A58F00E94AC
:1031A0003C1A40F029F45F3F29F00C94251A511184
:1031B0000C947E1A0C94391A0E945B1A68F39923B6
:1031C000B1F3552391F3951B550BBB27AA27621723
:1031D0007307840738F09F5F5F4F220F331F441F30
:1031E000AA1FA9F335D00E2E3AF0E0E832D0915064
:1031F0005040E695001CCAF72BD0FE2F29D0660F51
:10320000771F881FBB1F261737074807AB07B0E893
:1032100009F0BB0B802DBF01FF2793585F4F3AF099
:103220009E3F510578F00C94251A0C947E1A5F3F4E
:10323000E4F3983ED4F3869577956795B795F7951F
:103240009F5FC9F7880F911D9695879597F9089507
:10325000E1E0660F771F881FBB1F621773078407A3
:10326000BA0720F0621B730B840BBA0BEE1F88F7B2
:10327000E09508950E9441196894B1110C947E1A4A
:1032800008950E94631A88F09F5798F0B92F9927E4
:10329000B751B0F0E1F0660F771F881F991F1AF041
:1032A000BA95C9F714C0B13091F00E947D1AB1E00F
:1032B00008950C947D1A672F782F8827B85F39F00E
:1032C000B93FCCF3869577956795B395D9F73EF4DA
:1032D00090958095709561957F4F8F4F9F4F089582
:1032E000E89409C097FB3EF49095809570956195A0
:1032F0007F4F8F4F9F4F9923A9F0F92F96E9BB2756
:103300009395F695879577956795B795F111F8CFD1
:10331000FAF4BB0F11F460FF1BC06F5F7F4F8F4F3C
:103320009F4F16C0882311F096E911C0772321F032
:103330009EE8872F762F05C0662371F096E8862FCA
:1033400070E060E02AF09A95660F771F881FDAF721
:10335000880F9695879597F908950E943C1A20F05A
:1033600019F00E94431A50F40C94391A0C947E1AE6
:10337000E92F0E945B1A88F35523B1F3E7FB62172C
:10338000730784079507A8F189F3E92FFF2788239E
:103390002AF03197660F771F881FDAF7952F552788
:1033A000442332F091505040220F331F441FD2F774
:1033B000BB27E91BF50B621B730B840BB109B1F240
:1033C00022F4620F731F841FB11D31972AF0660F1C
:1033D000771F881FBB1FEFCF9150504062F041F024
:1033E000882332F0660F771F881F91505040C1F735
:1033F00093950C942B1A8695779567959F5FD9F7CF
:10340000F7CF990F0008550FAA0BE0E8FEEF16164C
:103410001706E807F907C0F012161306E407F507C8
:1034200098F0621B730B840B950B39F40A2661F03C
:10343000232B242B252B21F408950A2609F4A140DF
:10344000A6958FEF811D811D089597F99F6780E8EC
:1034500070E060E008959F3F31F0915020F487952F
:1034600077956795B795880F911D9695879597F9EC
:1034700008959FEF80EC089500240A94161617060D
:1034800018060906089500240A9412161306140655
:1034900005060895092E0394000C11F4882352F0B8
:1034A000BB0F40F4BF2B11F460FF04C06F5F7F4F70
:1034B0008F4F9F4F089557FD9058440F551F59F057
:1034C0005F3F71F04795880F97FB991F61F09F3F11
:1034D00079F087950895121613061406551FF2CF3A
:1034E0004695F1DF08C0161617061806991FF1CF8A
:1034F00086957105610508940895E894BB276627B1
:103500007727CB0197F908950E94011A08F48FEFED
:1035100008950E949C1A0C944A1A0E943C1A38F092
:103520000E94431A20F0952311F00C94251A0C9454
:10353000391A11240C947E1A0E945B1A70F3959F1D
:10354000C1F3950F50E0551F629FF001729FBB279A
:10355000F00DB11D639FAA27F00DB11DAA1F649F36
:103560006627B00DA11D661F829F2227B00DA11DE9
:10357000621F739FB00DA11D621F839FA00D611D6F
:10358000221F749F3327A00D611D231F849F600D90
:10359000211D822F762F6A2F11249F5750409AF0B9
:1035A000F1F088234AF0EE0FFF1FBB1F661F771F45
:1035B000881F91505040A9F79E3F510580F00C9410
:1035C000251A0C947E1A5F3FE4F3983ED4F3869557
:1035D00077956795B795F795E7959F5FC1F7FE2BB0
:1035E000880F911D9695879597F9089597FB072E5B
:1035F00016F4009407D077FD09D00E94101B07FC39
:1036000005D03EF4909581959F4F089570956195F2
:103610007F4F0895EE0FFF1F0590F491E02D099460
:10362000AA1BBB1B51E107C0AA1FBB1FA617B707E8
:1036300010F0A61BB70B881F991F5A95A9F7809504
:103640009095BC01CD0108950F931F93CF93DF9305
:103650008230910510F482E090E0E091B706F0919D
:10366000B80630E020E0B0E0A0E0309799F42115F2
:10367000310509F44AC0281B390B24303105D8F52F
:103680008A819B816115710589F1FB019383828396
:10369000FE0111C0408151810281138148175907F1
:1036A000E0F04817590799F4109761F012960C93BF
:1036B000129713961C933296CF01DF91CF911F91F1
:1036C0000F9108950093B7061093B806F4CF211513
:1036D000310551F04217530738F0A901DB019A0177
:1036E000BD01DF01F801C1CFEF01F9CF9093B8061A
:1036F0008093B706CDCFFE01E20FF31F8193919324
:103700002250310939832883D7CF2091B5063091D3
:10371000B606232B41F42091CE013091CF01309396
:10372000B6062093B5062091CC013091CD0121152C
:10373000310541F42DB73EB74091D0015091D101F0
:10374000241B350BE091B506F091B606E217F3079E
:10375000A0F42E1B3F0B2817390778F0AC014E5F01
:103760005F4F2417350748F04E0F5F1F5093B60682
:103770004093B506819391939FCFF0E0E0E09CCF1A
:10378000CF93DF930097E9F0FC0132971382128206
:10379000A091B706B091B806ED0130E020E0109797
:1037A000A1F420813181820F931F2091B5063091C1
:1037B000B6062817390709F061C0F093B606E09302
:1037C000B506DF91CF910895EA01CE17DF07E8F53E
:1037D0004A815B819E0141155105B1F7E901FB83E7
:1037E000EA8349915991C40FD51FEC17FD0761F485
:1037F000808191810296840F951FE90199838883C6
:10380000828193819B838A83F0E0E0E012968D9120
:103810009C9113970097B9F52D913C911197CD018B
:103820000296820F931F2091B5063091B606281795
:10383000390739F6309751F51092B8061092B7064D
:10384000B093B606A093B506BCCFD383C2834081A4
:103850005181840F951FC817D90761F44E5F5F4FE0
:1038600088819981480F591F518340838A819B81A8
:10387000938382832115310509F0B0CFF093B80608
:10388000E093B7069ECFFD01DC01C0CF1382128208
:06389000D7CFF894FFCF32
:103896000100000000E7FBA93D0C022B3E00008062
:1038A6003EFA7EAA3E0681D53E0000003F7D3F15CA
:1038B6003F83C02A3F0000403F7D3F553F83C06A9B
:1038C6003F0000803FBE9F8A3F4260953F0000A0B8
:1038D6003FBE9FAA3F4260B53F0000C03FBE9FCAA1
:1038E6003F4260D53F0000E03FBE9FEA3F4260F5A1
:1038F6003F00000040DF4F054021B00A40000010A5
:1039060040DF4F154021B01A4000002040DF4F2510
:103916004021B02A4000003040DF4F354021B03A08
:103926004000004040DF4F454021B04A4000005073
:1039360040DF4F554021B05A4000006040DF4F65E0
:103946004021B06A4000007040DF4F754021B07AD8
:103956004000008040010100010000000000B9069F
:1039660080003930320939300C1824020304050668
:103976000708000000009F037203CE0348036B0391
:043986005803490396
:00000001FF
