:100000000C9462000C948A000C948A000C948A0070
:100010000C948A000C948A000C948A000C948A0038
:100020000C948A000C948A000C948A000C948A0028
:100030000C948A000C948A000C948A000C948A0018
:100040000C9458080C948A000C948A000C948A0032
:100050000C948A000C948A000C948A000C948A00F8
:100060000C94A2080C948A000000000024002700D1
:100070002A0000000000250028002B0000000000DE
:1000800023002600290004040404040404040202DA
:100090000202020203030303030301020408102007
:1000A0004080010204081020010204081020000012
:1000B0000008000201000003040700000000000027
:1000C0000000C80A11241FBECFEFD8E0DEBFCDBFAD
:1000D00012E0A0E0B1E0E4EEF0E402C005900D9281
:1000E000AC30B107D9F725E0ACE0B2E001C01D9219
:1000F000A130B207E1F710E0C2E6D0E004C02197DA
:10010000FE010E94311FC136D107C9F70E94DD0AE6
:100110000C9470200C94000008950895833081F0B1
:1001200028F4813099F08230A9F008958730A9F041
:100130008830C9F08430B1F4809180008F7D03C095
:10014000809180008F7780938000089584B58F77A9
:1001500084BD089584B58F7DFBCF8091B0008F77EB
:100160008093B00008958091B0008F7DF9CFCF9338
:10017000DF93282F30E0F901E255FF4F8491F90118
:10018000E656FF4FD491F901EA57FF4FC491CC23B3
:10019000A1F081110E948E00EC2FF0E0EE0FFF1F06
:1001A000E458FF4FA591B491EC91ED2381E090E0EC
:1001B00009F480E0DF91CF91089580E090E0FACFDC
:1001C0001F93CF93DF93282F30E0F901E255FF4FC3
:1001D0008491F901E656FF4FD491F901EA57FF4F98
:1001E000C491CC23A9F0162F81110E948E00EC2F10
:1001F000F0E0EE0FFF1FEE58FF4FA591B4918FB7BF
:10020000F894EC91111108C0D095DE23DC938FBFD8
:10021000DF91CF911F910895DE2BF8CFCF93DF931D
:1002200090E0FC01E656FF4F24918A579F4FFC0156
:1002300084918823C9F090E0880F991FFC01E85948
:10024000FF4FA591B491FC01EE58FF4FC591D49199
:1002500061110DC09FB7F8948C91209582238C93E7
:100260008881282328839FBFDF91CF910895623032
:1002700051F49FB7F8943C91822F809583238C93FF
:10028000E8812E2BEFCF8FB7F894EC912E2B2C9387
:100290008FBFEACF8E3008F08E50877080648093D5
:1002A0007C0080917A00806480937A0080917A004B
:1002B00086FDFCCF809178009091790008953FB73A
:1002C000F8948091950490919604A0919704B09130
:1002D000980426B5A89B05C02F3F19F00196A11DD3
:1002E000B11D3FBFBA2FA92F982F8827BC01CD0180
:1002F000620F711D811D911D42E0660F771F881FDF
:10030000991F4A95D1F708958F929F92AF92BF920D
:10031000CF92DF92EF92FF924B015C010E945F014E
:100320006B017C010E945F016C197D098E099F0998
:10033000683E734081059105A8F321E0821A910877
:10034000A108B10888EEC80E83E0D81EE11CF11C9C
:1003500081149104A104B10429F7FF90EF90DF907C
:10036000CF90BF90AF909F908F9008952FB7F89443
:1003700060919104709192048091930490919404FF
:100380002FBF089520914D02260F3327331F2132AE
:100390003105ECF42091C504FC0190E080E02430AC
:1003A00069F082E00895A0914D022191AC01435D76
:1003B0005D4FA40FB52FB11D2C930196861798F3AE
:1003C00080914D02680F60934D0280E0089581E0B6
:1003D00008951092C50481E08093C40410929F0494
:1003E00061E082E10E94E00061E083E10E94E000C0
:1003F000E9EBF0E080818E7F808380818D7F808338
:1004000088E48093B80085E48093BC00089510923E
:100410009E0410929D041092CC041092EE040E944F
:10042000E9018CE890E090939C0480939B048DE814
:1004300090E090939A04809399040895CF93DF936A
:1004400091E090932C028823B9F0C091B800D0912C
:10045000BA008091BC008A7B8093BC0060E082E19E
:100460000E94E00060E083E10E94E0000E94E90158
:10047000D093BA00C093B800DF91CF9108958F92C6
:100480009F92AF92BF92CF92DF92EF92FF920F9323
:100490001F93CF93DF93D091EE04D13208F0D7C0F1
:1004A000182FC091ED040E945F016B017C018091C7
:1004B000C50481116BC082E08093C5041093C4040D
:1004C0008FEF8093C3041092C204D093C104ADECAB
:1004D000B4E0E1EAF4E080E0D81391C01092A00407
:1004E0008091A004CC0FC82BC093A00480919F04DE
:1004F000813009F088C010929F040E945F016B0157
:100500007C018091A0048093BB008091C7049091EE
:10051000C804A091C904B091CA04892B8A2B8B2BE3
:10052000A1F00E945F010091C7041091C8042091BE
:10053000C9043091CA046C197D098E099F090617F8
:1005400017072807390708F442C08091BC0083FDD3
:10055000D8CF85EC8093BC000E945F016B017C01C9
:100560008091C504823009F450C08091C3048F3F4C
:1005700009F46FC08091C304803209F46CC080918B
:10058000C304803309F469C084E026C08091C704A5
:100590009091C804A091C904B091CA04892B8A2BF8
:1005A0008B2B09F484CF0E945F018090C704909048
:1005B000C804A090C904B090CA046C197D098E09C2
:1005C0009F0986169706A806B90608F070CF809195
:1005D000C6040E941E0285E01092CC041092EE0424
:1005E0001092CB04DF91CF911F910F91FF90EF906C
:1005F000DF90CF90BF90AF909F908F9008959D9186
:1006000091938F5F69CF85EEA5CF8091C7049091BC
:10061000C804A091C904B091CA04892B8A2B8B2BE2
:1006200009F49ECF0E945F010091C7041091C80495
:100630002091C9043091CA046C197D098E099F0963
:10064000061717072807390708F08ACFC0CF81E0BF
:10065000C3CF80E0C1CF82E0BFCF83E0BDCF08959C
:10066000E0919E0480919D04E81730F4F0E0E45F8F
:10067000FD4F808190E008958FEF9FEF0895909156
:100680009E0480919D042FEF3FEF981748F4E92FC7
:10069000F0E0E45FFD4F208130E09F5F90939E0487
:1006A000C901089580919D0490919E04891B990B26
:1006B0000895CF92DF92EF92FF920F931F93CF9303
:1006C000DF937C01CB018A012091CB04222389F0A6
:1006D000EB016B01C40ED51ECC15DD0569F06991E7
:1006E000D701ED91FC910190F081E02DC7010995B2
:1006F000F3CF642F0E94C201C801DF91CF911F91F7
:100700000F91FF90EF90DF90CF900895CF93DF93FC
:100710001F92CDB7DEB769832091CB042223F9F075
:100720002091EE04203258F021E030E0FC013383C8
:10073000228390E080E00F90DF91CF910895809127
:10074000CC04E82FF0E0E353FB4F998190838F5F57
:100750008093CC048093EE0481E090E0ECCF61E0E4
:10076000CE0101960E94C201F7CF90E080E008958B
:10077000CF93DF93EC018B818823A1F0888191E0F6
:100780009093CB048093ED041092CC041092EE046D
:1007900081E00E943F0291E0811190E0892FDF917A
:1007A000CF9108950E94070281E08B83CE010E94C1
:1007B000B803982F8111E2CFF1CF20917D0422233D
:1007C00019F12091850430918004311102C0222357
:1007D000D9F06091C6017091C701222311F0660F14
:1007E000771F6131710514F060E170E02091E00342
:1007F0003091E103820F931F860F971F0E941D1FE8
:100800009093E1038093E0030895E7EFF3E030E095
:1008100020E090E080E041E050E06191662349F003
:10082000BA01022E02C0660F771F0A94E2F7862BE8
:10083000972B2F5F3F4F2C30310579F708958F921A
:100840009F92AF92BF92CF92DF92EF92FF920F935F
:100850001F93CF93DF93E090C401F090C501682F00
:1008600070E0C091EF03D091F0038091F503909177
:10087000F603181619060CF442C0072E000C880B5C
:10088000990B0E94A01D20E030E04FE753E40E9446
:10089000F61C4B015C01B701FF0C880B990B0E9401
:1008A000A01D9B01AC01C501B4010E94551E6B0146
:1008B0007C01BE01DD0F880B990B0E94A01D9B01DE
:1008C000AC01C701B6010E94851C6B017C0120E0D0
:1008D00030E040E850E40E94501E18160CF46FC03F
:1008E000C701B601DF91CF911F910F91FF90EF905B
:1008F000DF90CF90BF90AF909F908F9008952CE0A5
:100900002E9DC0012F9D900D1124869F9001879FE1
:10091000300D969F300D1124C90164EF7BE00E94D9
:100920001D1FFB01C9016FEF70E00E941D1FCB016D
:100930006CE070E00E941D1F7C019C01245F3F4F12
:100940006C010CE010E0C601B8010E941D1FDC0123
:10095000A950BC4F4C91411113C0C901B8010E946C
:100960001D1FDC01A950BC4F4C91411109C08FEFF4
:10097000C81AD80A215031092E153F0521F7C9019F
:10098000CE0FDF1F4CE04C9F90014D9F300D112486
:10099000820F931F97FF02C090E080E081339105A2
:1009A00014F080E390E0880F991F880F991FFC01D5
:1009B000E155FD4FC080D180E280F38091CFC12C02
:1009C000D12C80E8E82E80E4F82E8ACF2F923F9237
:1009D0005F926F927F928F929F92AF92BF92CF92CF
:1009E000DF92EF92FF920F931F93CF93DF9350907C
:1009F00085048091800481111AC0009181041091B6
:100A00008204511018C010927D04DF91CF911F9184
:100A10000F91FF90EF90DF90CF90BF90AF909F909D
:100A20008F907F906F905F903F902F9008950091EE
:100A30007E0410917F04C091C601D091C7017E0150
:100A4000552011F0EE0CFF1C21E1E216F1041CF020
:100A500040E1E42EF12CCC24C394D12C0C2E02C006
:100A6000CC0CDD1C0A94E2F7E1E0CE1AD1081E019D
:100A7000F8E02F1A31083E0121E0621A710830ECCB
:100A8000832E33E0932EB12CA12CAE14BF040CF0B6
:100A900078C0F801EC21FD21C830D10544F1CF0127
:100AA000022C02C0969587950A94E2F70E941F04D3
:100AB0002FE338EA4FE454E40E94551E0E946F1D54
:100AC000F401619371934F01C801062C02C0969501
:100AD00087950A94E2F7511051C081709927000F51
:100AE000111F082B192BFFEFAF1ABF0ACECF8E2F85
:100AF000C430D10569F1B4F4C330D105B9F6E7705B
:100B00002E2F30E0C901A5E0880F991FAA95E1F7C3
:100B1000B901660F771F660F771F862B35952795CE
:100B2000822BC4CFC530D105D1F0C630D10509F034
:100B3000BDCFEF734E2F50E0CA01880F991F880F69
:100B4000991F64E0559547956A95E1F7842BAECFE0
:100B5000EF70F0E1EF9FC00111248E2BA7CFEF7152
:100B60006E2F70E0CB01E3E0880F991FEA95E1F763
:100B70007595679575956795862B98CF8095909517
:100B8000ACCF1092E1031092E00381E080937D04EA
:100B90003CCFE7EFF3E050E040E030E020E0BC0184
:100BA000022E02C0769567950A94E2F7762F71704F
:100BB000719360FF02C04F5F5F4F2F5F3F4F2C303C
:100BC000310569F75093F6034093F5030C94E6045E
:100BD000E7EFF3E0119284E0E330F807D9F71092E1
:100BE000F6031092F5030C94E6049C012856310993
:100BF00081E02E30310508F080E00895CF93DF9337
:100C000000D01F92CDB7DEB71092B9002CE0209330
:100C1000B80020E429839C0194E0369527959A95A5
:100C2000E1F72A838295807F8B83E091FB04F0912A
:100C3000FC0484819581039738F480E00F900F9035
:100C40000F90DF91CF91089581819281208131E0D1
:100C50003093CB042093ED041092CC041092EE0458
:100C6000DC01ED91FC910280F381E02D43E050E046
:100C7000BE016F5F7F4F09950397F9F681E00E94EF
:100C80003F028111DACF1092B90088E48093B80056
:100C900081E0D4CF0F931F93CF93DF938C01EB01AF
:100CA0000E940B1C8883C80101960E940B1C89833B
:100CB000CE01DF91CF911F910F910895CF92DF92D6
:100CC000EF92FF920F931F93CF93DF938C017B01E1
:100CD0000E94F505882351F068018FEFC81AD80AE1
:100CE000C6010E94F505C82F811110C08FEF9FEF3C
:100CF000F70191838083C0E08C2FDF91CF911F910A
:100D00000F91FF90EF90DF90CF900895C8010E945F
:100D10000B1CD82FC6010E940B1C982F8D2FF7019A
:100D200091838083E9CF85ED8093BC008091C704D7
:100D30009091C804A091C904B091CA040796A11D5E
:100D4000B11D23E0B695A795979587952A95D1F77C
:100D50002091BC0024FD03C01092C5040895409169
:100D6000C7045091C8046091C9047091CA04452B0E
:100D7000462B472B69F30097A105B10541F02AE204
:100D80002A95F1F700C00197A109B109E1CF80913F
:100D9000C6040C941E02FF920F931F93CF93DF9310
:100DA000EC01F62E08811981C8010E940B1CF8166F
:100DB00021F06F2DC8010E94131CCE01DF91CF914D
:100DC0001F910F91FF9008950F931F93CF93DF937F
:100DD00000D0CDB7DEB78B019A838983FB01608198
:100DE000CE0101960E94CB06C8010F900F90DF91B3
:100DF000CF911F910F910895EF92FF920F931F9340
:100E0000CF93DF9300D0CDB7DEB78C017B019A83FF
:100E10008983FB016081CE0101960E94CB060F5FA2
:100E20001F4F1A830983F7016181CE0101960E9449
:100E3000CB06C7010F900F90DF91CF911F910F91BB
:100E4000FF90EF900895CF92DF92EF92FF920F9371
:100E50001F93CF93DF93CDB7DEB72E970FB6F894DD
:100E6000DEBF0FBECDBF8C0183EB93EB9A878987E2
:100E7000809183049091840498878F838091C60128
:100E80008E878091E0038D878091C4018C8780914B
:100E9000EF039091F00397FD76C08430910514F034
:100EA00083E090E08B8780918C04882309F46DC0E7
:100EB0008091C8019091C9019E838D830E94050491
:100EC0009C838B83C090B803D090B903E090BA03A1
:100ED000F090BB0320E030E0A901C701B6010E94F9
:100EE000F11C18160CF45EC01A821982BE01675FED
:100EF0007F4FC8010E94FC06BE01695F7F4FC80199
:100F000002960E94FC06BE01625F7F4FC8010496F4
:100F10000E94E406BE01635F7F4FC80105960E94F0
:100F2000E406BE01645F7F4FC80106960E94E40696
:100F3000BE01655F7F4FC80107960E94E406BE01AF
:100F40006B5F7F4FC80108960E94FC06BE016D5F73
:100F50007F4FC8010A960E94FC06BE016F5F7F4F5B
:100F6000C8010C960E94FC062E960FB6F894DEBFC0
:100F70000FBECDBFDF91CF911F910F91FF90EF90EA
:100F8000DF90CF90089580E08DCF809189048823F1
:100F900029F08091CC019091CD018ECF8EE00E94FE
:100FA0004A018ACFA701960160E070E080E09FE3EC
:100FB0000E94F61C20E030E040E85FE30E94841CC1
:100FC00020E030E047E453E40E94F61C6B017C0112
:100FD00020E030E0A9010E94F11C87FD25C020E03F
:100FE00030E040E85FE3C701B6010E94501E1816CA
:100FF000FCF0C701B6010E94C81E20E030E04BE7BC
:1010000054E40E94551E20E030E040E851E40E9484
:10101000851C0E946F1D6D3F83E0780710F06CEF18
:1010200073E07A83698362CFC12CD12C7601E1CF42
:10103000C12CD12C80E8E82E8FE3F82EDACFBF92B6
:10104000CF92DF92EF92FF920F931F93CF93DF9394
:1010500000D0CDB7DEB77C01B62E072F0E94F50574
:10106000182F8823C1F067018FEFC81AD80AC6016C
:101070000E94F505182F882371F0FA82E9826B2D02
:10108000CE0101960E94CB06DA82C982602FCE0182
:1010900001960E94CB06812F0F900F90DF91CF9188
:1010A0001F910F91FF90EF90DF90CF90BF90089528
:1010B0001F920F920FB60F9211242F933F938F938D
:1010C0009F93AF93BF938091910490919204A091CC
:1010D0009304B09194043091900423E0230F2D37B2
:1010E00058F50196A11DB11D2093900480939104A1
:1010F00090939204A0939304B093940480919504E8
:1011000090919604A0919704B09198040196A11D26
:10111000B11D8093950490939604A0939704B09387
:101120009804BF91AF919F918F913F912F910F9014
:101130000FBE0F901F90189526E8230F0296A11D51
:10114000B11DD2CF1F920F920FB60F9211242F9381
:101150003F934F935F936F937F938F939F93AF933F
:10116000BF93EF93FF938091B900887F803609F495
:101170004AC0F0F5883209F4A7C018F5803109F4A7
:101180009BC0B8F4882309F4F9C0883009F494C0EE
:10119000FF91EF91BF91AF919F918F917F916F914F
:1011A0005F914F913F912F910F900FBE0F901F9025
:1011B0001895883109F488C0803251F78093C304B0
:1011C00014C0803409F49DC040F48033B9F38833EF
:1011D000F9F68093C30485ECB0C0803509F485C06E
:1011E000883509F496C0883499F60E949306D0CFCA
:1011F000883909F48CC038F5883729F050F48836DE
:1012000011F0803729F683E08093C50410926F02B5
:1012100057C0883809F47BC0803919F0803809F04C
:10122000B7CF80916F02803208F071C0E0916F02F9
:1012300081E08E0F80936F028091BB00F0E0E15B54
:10124000FD4F80833DC0803B39F0E0F4803A09F4E3
:1012500079C0883A09F09CCF84E08093C50410924D
:101260004E0210924D02E0919B04F0919C0409956E
:1012700080914D0281110FC081E080934D02109248
:101280002D0209C0803C09F4A6CF883C09F4A3CF05
:10129000883B09F07DCFE0914E0281E08E0F809374
:1012A0004E02F0E0E35DFD4F80818093BB009091A2
:1012B0004E0280914D0229C08091A0048093BB0012
:1012C00085EC8093BC0064CF9091C2048091C104EE
:1012D000981758F5E091C20481E08E0F8093C20404
:1012E000F0E0EF55FB4F8081E9CFE091C20481E04F
:1012F0008E0F8093C2048091BB00F0E0EF55FB4F4E
:1013000080839091C2048091C1049817C8F285E847
:10131000D8CFE091C20481E08E0F8093C204809107
:10132000BB00F0E0EF55FB4F80838091C404811136
:101330005CCF81E080939F0484EA8093BC0010928C
:10134000C50426CF85EC8093BC001092C504809123
:101350006F02803230F4E0916F02F0E0E15BFD4F0C
:10136000108260916F0270E0E0919904F0919A040C
:101370008FE492E0099510926F020ACF1092C30495
:1013800034CFCF93DF93EB010E940B1C8883CE01F7
:10139000DF91CF9108950F931F93CF93DF93CDB734
:1013A000DEB72E970FB6F894DEBF0FBECDBF8C010F
:1013B000BE01675F7F4F0E944A0689859A85833BFD
:1013C000934B09F0E3C0BE01695F7F4FC8010296ED
:1013D0000E944A06BE01625F7F4FC80104960E94C8
:1013E000C109BE01635F7F4FC80105960E94C10914
:1013F000BE01645F7F4FC80106960E94C109BE010D
:10140000655F7F4FC80107960E94C109BE016B5FEF
:101410007F4FC80108960E944A06BE016D5F7F4F4C
:10142000C8010A960E944A06BE016F5F7F4FC8013D
:101430000C960E944A068E859DEF980F943038F0E6
:10144000982F9B7F983019F0803109F09FC04C8510
:101450009FEF940F943008F099C029813A812D3F75
:10146000334008F093C02B85243008F08FC06F8183
:101470007885709384046093830490E09093C7010F
:101480008093C60150E05093C5014093C40130E001
:1014900084E090E0841B950B281739070CF4C901F0
:1014A0009093F0038093EF031092E3031092E20312
:1014B0008B819C810E94C905109280041092850442
:1014C00010927D048D85803108F080E090E090934B
:1014D000E1038093E00369817A816031710518F539
:1014E0001092B8031092B9031092BA031092BB0382
:1014F0008D819E819093CD018093CC018EE00E94DE
:101500004A01909388048093870481E08093890442
:101510002E960FB6F894DEBF0FBECDBFDF91CF91F0
:101520001F910F9108956051710990E080E00E9431
:101530009E1D20E030E04BE754E40E94F61C9B0126
:10154000AC010E94551E20E030E047E453E40E94C5
:10155000551E20E030E040E85FE30E94851C9B01BF
:10156000AC0160E070E080E89FE30E94F61C20E0A0
:1015700030E040E05FE30E94551E6093B803709333
:10158000B9038093BA039093BB03B2CF80E0C0CF7E
:10159000EFEEF4E01382128288EE93E0A0E0B0E078
:1015A00084839583A683B7838EEF91E091838083B4
:1015B0001092FC041092FB040895CF93DF93CDB7F3
:1015C000DEB764970FB6F894DEBF0FBECDBF789438
:1015D00084B5826084BD84B5816084BD85B5826038
:1015E00085BD85B5816085BD80916E0081608093E9
:1015F0006E00109281008091810082608093810052
:101600008091810081608093810080918000816061
:10161000809380008091B10084608093B1008091BC
:10162000B00081608093B00080917A0084608093E4
:101630007A0080917A00826080937A0080917A00AB
:10164000816080937A0080917A00806880937A002C
:101650001092C1000E9407028091FB049091FC044B
:10166000009711F00E94E71F86E090E00E944B1F58
:101670008C0180E6D8018C938FEE94E012969C93B7
:101680008E93119713961C92139780E290E0159613
:101690009C938E9314971093FC040093FB040E9478
:1016A000070281E0F8018383C8010E94B80339E68C
:1016B000C32E34E0D32E03EF11E018870F8310E020
:1016C00000E062E0AF81B8858D91B887AF830E945A
:1016D0000E01560126EF822E21E0922EF12CE12CF4
:1016E000F801E75CFB4F3F019801275F3B4F290161
:1016F000D4013D904D0161E0832D0E940E0161E017
:10170000832D0E94E000F50111925F01F301EE0DBF
:10171000FF1D1082118212821382F201EE0DFF1D55
:101720001082118212821382F4E0EF0EF11C20E18C
:10173000E216F104E9F634E0C30ED11C005F1F4F3E
:101740000033110509F0BDCF62E089E00E940E016F
:1017500062E08AE00E940E0160E08BE00E940E01D0
:1017600062E08CE00E940E0160E08EE00E940E01BB
:1017700061E08DE00E940E0160E08BE00E94E000DD
:101780000E94B6016B017C010E94B6016C197D09B3
:101790008E099F09603D774081059105D0F489E06D
:1017A0000E94B7005C018AE00E94B7008C018CE0C7
:1017B0000E94B700AB2811F00C94411B012B11F0D3
:1017C0000C94451B81E080938F0461E08BE00E94C4
:1017D000E000BE016B5F7F4F90E080E00E944A0610
:1017E0008D819E8189339043A1F164EE71E090E098
:1017F00080E00E94FC0690E0E92E91E0F92E04E0E2
:1018000010E0B80160507F4F5B01670148018E18FE
:101810009F08C4018C0D9D1D9A838983D6016D910B
:101820006D01CE0101960E94CB06AC14BD0489F770
:10183000B4E0EB0EF11C0C5F1F4F083C110509F7DB
:101840001A821982BE016F5F7F4F88EC90E00E9480
:10185000FC06BE016D5F7F4F88EC90E00E944A0657
:101860008B819C818233994009F440C01FEAE12EAC
:1018700012E0F12E04E010E084E0682E712C980153
:1018800021553D4F5901670148018E189F08C40139
:101890008C0D9D1D0E940B1CD6018D936D01AA1607
:1018A000BB06A9F7F70161917191819191917F0137
:1018B00020E030E04AE754E40E94551E0E94681D73
:1018C0007A836983BE016F5F7F4FC3010E94FC066C
:1018D000F2E06F0E711C0C5F1F4F083C110579F68A
:1018E00062EE71E088EC90E00E94FC06BFEAEB2E0D
:1018F000B2E0FB2E04E010E0BE016F5F7F4FC80135
:101900000E944A0669817A81072E000C880B990B88
:101910000E94A01D20E030E04AE754E40E94F61C3B
:10192000D7016D937D938D939D937D010E5F1F4F26
:101930000636110509F7C12CD12C7601912C812C8A
:101940008FE00E944A015C0180E10E944A018C0103
:101950000E945F01AB01BC01C401089602C0000FE8
:10196000111F8A95E2F7012E000C220B330BC501E3
:10197000082C02C0880F991F0A94E2F7092E000C68
:10198000AA0BBB0B84279527A627B727082719275B
:101990002A273B27C026D126E226F32661E070E005
:1019A00080E090E00E948401BFEF8B1A9B0AE8E080
:1019B0008E16910429F610E000E0C8010E940B1C6D
:1019C00090E09801220F331F02C0880F991F2A95BB
:1019D000E2F74C01990FAA08BB08C501B4016C25B8
:1019E0007D258E259F250F5F1F4F0830110509F0BB
:1019F000FEC18C149D04AE04BF0411F00E94021CB1
:101A00000E94B31B20E030E041E050E00E94211C26
:101A10007093840460938304672B31F48AE59AE51C
:101A200090938404809383040E94E805BE016F5F55
:101A30007F4F88E690E00E945E068823C9F0898186
:101A40009A81853A954AA1F065EA75EA88E690E0C0
:101A50000E941F08882361F00AE610E070E060E051
:101A6000C8010E941F080E5F1F4F06371105B1F70E
:101A70000E94B6016B017C0180918F04882309F4D8
:101A800063C20E94B6016B017C0189E00E94B7002D
:101A9000892B09F0AFC18AE00E94B700892B09F0B9
:101AA000A9C18091950290919602A0919702B09160
:101AB000980216012701281A390A4A0A5B0AD2013C
:101AC000C101813D9740A105B10508F09EC189E0A3
:101AD0000E94B700892B71F58AE00E94B700892B1C
:101AE00049F18091900290919102A0919202B0915F
:101AF0009302A7019601281B390B4A0B5B0BDA01F5
:101B0000C901893C9105A105B105A0F080918E0223
:101B100090918F02843091052CF4019690938F025E
:101B200080938E02C0929002D0929102E092920233
:101B3000F09293028AE00E94B700892B31F489E089
:101B40000E94B700892B09F076C110928A02109288
:101B50008B0210928C0210928D0262E7A62E62E038
:101B6000B62E76EF272E71E0372E10E000E0E0E38E
:101B70006E2E712CF10141901F0160E0842D0E94B6
:101B8000E000650153EF852E51E0952EF12CE12CFC
:101B9000D4018D914D010E94B700552453940097B4
:101BA00009F0512C892B09F047C0F6018081918101
:101BB000892B09F041C020918E0230918F02C7011C
:101BC000880F991F880F991F800F911FFCE0F29FCB
:101BD000A001F39F500D1124840F951F9093710263
:101BE000809370022430310551F4E114F10439F48A
:101BF0000115110521F470927102609270028091BA
:101C000070029091710281339105B0F4880F991F91
:101C1000880F991FFC01E155FD4F2FE338EA4FE48F
:101C200054E460817181828193810E94551E0E94DB
:101C3000681DCB010E94FE05852D90E0D6018D9395
:101C40009C93BFEFEB1AFB0AE8E0CE0ED11CF3E049
:101C5000EF16F10409F09CCF61E0842D0E94E000B2
:101C60000F5F1F4F22E0A20EB11C0430110509F0D6
:101C700081CF8CE00E94B700892B09F076C0E090FC
:101C80007002F09071023FEFE316F30609F46DC0A5
:101C90008701000F111F000F111FF801E050FF4FC7
:101CA00080809180A280B3808EE00E944A01BC01B6
:101CB000990F880B990B0E94A01D20E030EC4FE794
:101CC00054E40E94F61C20E030E040E85EE30E940D
:101CD000551E20E030E040E05EE30E94841CA50138
:101CE00094010E94851C4B015C01E114F10409F090
:101CF00017C120E030E0A9010E94501E18161CF008
:101D0000812C912C5401F801E155FD4F8082918284
:101D1000A282B3822FE338EA4FE454E4C501B40150
:101D20000E94551E0E94681DCB010E94FE0520E006
:101D300030E04AE754E4C501B4010E94551E0E94F8
:101D4000681D7A8369838091700290917102029676
:101D5000BE016F5F7F4F880F991F0E94FC068FEFB7
:101D60009FEF909371028093700280E090E0892B46
:101D700009F47ECE0E9400007BCE012B11F40C945E
:101D8000451B81E080938E0461E08BE00E940E0190
:101D900060E08BE00E94E00083E793E043EA53E0D9
:101DA00063EA73E0FC0130E020E01192119211929D
:101DB0001192DA01A20FB31F1C922F5F3F4F243004
:101DC000310599F740964C5F5F4F6817790751F7D7
:101DD00010929E0210929F021092A0021092A102F5
:101DE0001092A2021092AF0310929D02F2CC6B01EE
:101DF0007C01E3CDC0929502D0929602E0929702C8
:101E0000F09298021092940262CE80919402811115
:101E10005ECE10928F0481E08093940260E08BE0AC
:101E20000E94E000C0929502D0929602E092970242
:101E3000F09298024CCE8091900290919102A091E4
:101E40009202B0919302B701A601481B590B6A0B8D
:101E50007B0BDB01CA01893C9105A105B105A0F00E
:101E600080918E0290918F02181619062CF401971A
:101E700090938F0280938E02C0929002D092910232
:101E8000E0929202F092930280918A0290918B02EA
:101E9000A0918C02B0918D020097A105B10549F483
:101EA000C0928A02D0928B02E0928C02F0928D0254
:101EB00054CEC81AD90AEA0AFB0A51E4C5165FE1F2
:101EC000D506E104F10408F448CE84ECE0E0F1E04A
:101ED000AFEAB2E001900D928A95E1F7F0E0EF2EC3
:101EE000F1E0FF2E04E010E0D7016D917D918D911E
:101EF0009D917D0120E030E04AE754E40E94551EA8
:101F00000E94681D7A836983BE016F5F7F4FC8019D
:101F10000E94FC060E5F1F4F0636110529F715CEED
:101F200040E3E416F10409F0EECE20E030E040E8B2
:101F300050E40E94F11C87FDE6CE812C912CF0E844
:101F4000AF2EF0E4BF2EDFCEB0908E04BB2009F49C
:101F5000C2C21092AF0389E00E94B7008C01BB247B
:101F6000B394892B09F0B12C8AE00E94B70041E0BC
:101F7000009709F040E0012B71F52091EA0321114F
:101F80002AC00091E5031091E6032091E703309108
:101F9000E80316012701201A310A420A530A920166
:101FA00081010333110521053105A8F02091C401F9
:101FB0003091C5012430310534F42F5F3F4F309309
:101FC000C5012093C401C092E503D092E603E092DC
:101FD000E703F092E803892B61F58091E903811111
:101FE00028C08091E5039091E603A091E703B091AA
:101FF000E80326013701481A590A6A0A7B0AD30105
:10200000C201C397A105B105A0F08091C4019091D0
:10201000C501823091052CF001979093C501809302
:10202000C401C092E503D092E603E092E703F09288
:10203000E803B092EA034093E90353E7652E53E0C7
:10204000752E63EA862E63E0962E06EF11E01C875C
:102050000B87AB85BC852D90BC87AB872F8660E056
:10206000822D0E94E0005301840123EF31E03A8B7E
:10207000298BA989BA898D91BA8BA98B0E94B70047
:10208000B1E0BF83009709F01F82F80120812F8003
:10209000221609F46DC0D5014D915D916D917C9131
:1020A00016012701241A350A460A570AB201A1016E
:1020B0004A3151056105710508F45AC0892B09F0B0
:1020C0004EC02091C4013091C501215031094CE02E
:1020D000342E329EC001339E900D11249801235A54
:1020E0003340820F931F8133910514F080E390E019
:1020F000880F991F880F991FFC01E155FD4F208023
:102100003180428053802092AB023092AC024092E8
:10211000AD025092AE0220E030E0A9016091A7022A
:102120007091A8028091A9029091AA020E94F11CCC
:10213000811115C02092A3023092A4024092A50200
:102140005092A6022FE338EA4FE454E4C201B101F1
:102150000E94551E0E94681DCB010E94FE052F8023
:10216000D8012C92D501CD92DD92ED92FC9213977D
:10217000F8018081882319F0F1E0F093AF030C5F40
:102180001F4F20E1A20EB11C49895A89465F514078
:1021900009F06FCF61E08F850E94E0007FEF871A22
:1021A000970A84E0680E711C0B851C850A5F11403C
:1021B00009F04FCF8CE00E94B70011E0009709F0C2
:1021C00010E02091A202121709F46AC040919E0209
:1021D00050919F026091A0027091A1021601270107
:1021E000241A350A460A570AB201A1014A3151059B
:1021F0006105710508F454C0892B09F047C080912E
:10220000C4019091C50101978330910508F0E1C0A8
:102210008A519E4FDC018C91082E000C990B880F7F
:10222000991F880F991FFC01E155FD4F8080918017
:10223000A280B3808092AB029092AC02A092AD02D9
:10224000B092AE0220E030E0A9016091A702709147
:10225000A8028091A9029091AA020E94F11C81110A
:1022600015C08092A3029092A402A092A502B092FF
:10227000A6022FE338EA4FE454E4C501B4010E94FA
:10228000551E0E94681DCB010E94FE051093A202FC
:10229000C0929E02D0929F02E092A002F092A10210
:1022A0008091A202882319F081E08093AF031091FE
:1022B000AF0380919D02181731F0612F8BE00E94CF
:1022C000E00010939D028EE00E944A01803191054A
:1022D0000CF082C01092A7021092A8021092A902DC
:1022E0001092AA022090A7023090A8024090A90262
:1022F0005090AA022F82388649865A8620E030E024
:10230000A901C201B1010E94501E18160CF02DCD7A
:102310004090A3025090A4026090A5027090A60283
:10232000C090AB02D090AC02E090AD02F090AE0253
:10233000A7019601C301B2010E94F11C882309F490
:1023400014CD0E945F016B877C878D879E8780916B
:10235000990290919A02A0919B02B0919C028B8469
:102360009C84AD84BE84881A990AAA0ABB0AD50146
:10237000C401843F9140A105B10508F4F6CCA30146
:102380009201C701B6010E94841C4B015C0120E050
:1023900030E0A9010E94501E18160CF066C02FE60E
:1023A00032E143E85AE3C501B4010E94501E1816F9
:1023B0000CF465C0C092A302D092A402E092A502E0
:1023C000F092A6022FE338EA4FE454E4C701B601C5
:1023D0006EC080E390E023CF9C018132934014F0E3
:1023E00020E233E0032E000C440B550B2C5F3340EE
:1023F00041095109A4E6B0E00E94401C24E13CEFF1
:102400004FEF5FEF0E94211CCA01B9010E94A01D7D
:1024100020E030EC4FE754E40E94F61C6B017C0195
:1024200020E030E0A9010E94F11C87FD1AC02DECCC
:102430003CEC4CEC5DE3C701B6010E94501E18163F
:102440003CF40DECC02E0CECD02EED2C0DE3F02E58
:10245000C092A702D092A802E092A902F092AA022A
:1024600041CFC12CD12C7601F3CF2FE632E143E8E6
:102470005AEBC501B4010E94F11C87FF9BCFA50157
:1024800094016F81788589859A850E94551EA301E4
:1024900092010E94851C6093A3027093A402809312
:1024A000A5029093A6022FE338EA4FE454E40E9479
:1024B000551E0E94681DCB010E94FE052B843C84A2
:1024C0004D845E842092990230929A0240929B023F
:1024D00050929C024ACC8EE00E944A014091D60163
:1024E0005091D7019A01220F331F240F351F280F57
:1024F000391F37FF02C02D5F3F4FA9015595479502
:10250000559547955093D7014093D601D0908D04AF
:10251000DD2009F4B1C08091D2019091D301A09146
:10252000D401B091D5018093CE019093CF01A093B7
:10253000D001B093D1018CE00E94B7009C0101E072
:10254000892B09F000E090917C04232B11F00C946E
:102550004D1B9111E7C10E94B601609378047093FE
:10256000790480937A0490937B0400937C0406EFB3
:1025700011E01A8B098B1C8AE12C1F82712C612CB3
:10258000912C812C60E0A989BA898C910E94E0008D
:102590008401F401E759FB4F2F01130123EF31E0D0
:1025A0003C872B87BB8AFF24F394AB85BC858D9138
:1025B000BC87AB870E94B7006C01AA24A394892B27
:1025C00009F0A12C0115110509F0EBC1C114D104CA
:1025D00011F40C94631BF2018081A81609F47CC4E9
:1025E0000E94B6019101275C3B4F388B2F87D901A0
:1025F0002D913D914D915C91621B730B840B950B5A
:10260000633371058105910508F4F1C1F201A082DF
:102610000E94B601AF85B8896D937D938D939C938D
:102620001397B0908D04F101E75FFB4FF88BEF87B4
:10263000CD2809F00EC40E94B601AF85B8896D930C
:102640007D938D939C931397BB2009F458C30C3052
:10265000110508F0CCC1F801E05DFC4E0C94311F6F
:10266000EE14F5145116F71458165F16F714661683
:102670006D16721679167C1620918C04222399F01F
:1026800020918A0430918B042C01421A530A920142
:1026900057FE03C03195219531092F3131050CF4D6
:1026A0003ACF10928C0420918904222379F0209152
:1026B000870430918804821B930B97FF03C0919588
:1026C000819591094F9744F110928904E090CA01D5
:1026D000F090CB014031510524F51092CB011092BE
:1026E000CA010091CA011091CB010230110509F411
:1026F000D6C090F50115110509F458C00130110537
:1027000009F47DC044E0E416F10409F06FC01092B2
:10271000800410927D040FCF4091CC015091CD01E7
:10272000D5CF84E090E04D3E03E050073CF4CA0171
:10273000845F91400B9738F482E090E09093CB0156
:102740008093CA01CECF81E090E0443F11E0510771
:10275000ACF383E090E0F2CF0330110509F4ACC094
:102760000430110579F61092CE011092CF0110922B
:10277000D0011092D10110928604809180048111C1
:102780000DC0809183049091840490937F04809382
:102790007E0481E0809380040E94E60404E0E01659
:1027A000F10409F4C8CEEF2839F1C5CE1092CE015C
:1027B0001092CF011092D0011092D10181E080934C
:1027C00086049091850491110CC02091830430916E
:1027D00084043093820420938104809385040E94B2
:1027E000E60424E0E216F10409F491CFEF2809F0A1
:1027F000A2CE012B09F49FCE109285048ACFBA0194
:10280000052E000C880B990B443A5140FCF49B01B7
:10281000AC012C53310941095109ACE8B0E00E94E8
:10282000401C28E631E040E050E00E94211CCA0133
:10283000B901665F7F4F8F4F9F4F0E94A01D20E020
:1028400030E04AE754E40E94F61C1EC00E94A01D1E
:1028500020E030E042ED53E40E94841C20E030E0B0
:1028600040EA52E40E94F61C9B01AC010E94551EF6
:102870002AE939E949E55FE30E94551E2AE939E969
:1028800049E15EE30E94851C6093CE017093CF0105
:102890008093D0019093D10110928604A2CF80E062
:1028A00090E0A0E8BFE38093CE019093CF01A09386
:1028B000D001B093D101F0CFBA01052E000C880BE6
:1028C000990B49355240BCF09B01AC012855324070
:1028D00041095109A4E7BFEF0E944E1C2EE531E0EB
:1028E00040E050E00E94211CCA01B9016A567F4FA6
:1028F0008F4F9F4FA2CF0E94A01D20E030E04FEFEE
:1029000053E40E94841C20E030E044EB52E40E9437
:10291000F61C9B01AC0160E070E080E89FE30E9440
:10292000841CA2CFD11021CE0E94B601C0907804A1
:10293000D0907904E0907A04F0907B046C197D09C2
:102940008E099F09663971058105910508F40DCE40
:1029500011E010938D048EE00E944A019093C9010A
:102960008093C8014091CE015091CF016091D00178
:102970007091D1014093D2015093D3016093D4015F
:102980007093D50190938B0480938A0410938C04E8
:10299000909377048093760410937504E6CDBB8AF8
:1029A00004CE0330110559F4C114D10409F013CE3B
:1029B00080918D04882309F40ECE8F830CCE0630CF
:1029C000110509F008CEC114D10409F004CE80919C
:1029D0008D04882309F4FFCDE82EFDCDE3E0F0E07F
:1029E000F093C701E093C60102C0F09208040C5FA7
:1029F0001F4FF4E04F0E511C20E1220E311C46EF18
:102A000051E06B857C854617570749F661E0A98937
:102A1000BA898D91BA8BA98B0E94E000BFEF8B1A07
:102A20009B0AE4E06E0E711CF4E08F16910409F02D
:102A3000A9CD90900504992041F02C88222029F0FE
:102A40000E94E80581E0809306043F8030920404F0
:102A5000E0920304B11002C0B0908D046B2D8DE0A4
:102A60000E94E0000E94B6012B013C0189E00E9417
:102A7000B7006C01BB24B394892B09F0B12C8AE018
:102A80000E94B7008C01FF24F394892B09F0F12CEC
:102A90008091F1039091F203A091F303B091F403BC
:102AA000CD2809F031C20097A105B10509F018C27F
:102AB0004092F1035092F2036092F3037092F40398
:102AC000109206048091EB039091EC03A091ED032A
:102AD000B091EE03012B09F07BC20097A105B1056F
:102AE00009F063C24092EB035092EC036092ED0355
:102AF0007092EE03109206048091EA03B81204C0AB
:102B00008091E903F81609F10E94B6010091E503EE
:102B10001091E6032091E7033091E803601B710BED
:102B2000820B930B633371058105910570F0B092B0
:102B3000EA03F092E9030E94B6016093E503709303
:102B4000E6038093E7039093E8038BE00E94B700CD
:102B5000BB24B394009709F4B12C892B09F4B4C2B7
:102B60008091E4038111B0C2F09080048091080448
:102B7000882309F494C3F11071C2809185048111F6
:102B800025C38091850481118DC30091C6011091E8
:102B9000C701609183047091840421E030E0002E2D
:102BA00002C0220F331F0A94E2F721503109262375
:102BB0003723083011050CF41DC4C801089702C062
:102BC000369527958A95E2F7822F015011092F80BB
:102BD000222009F46FC42091E2033091E303A8019D
:102BE000421B530B21E030E002C0220F331F4A95F5
:102BF000E2F7A901409550956423752370938404EE
:102C000060938304FF2009F43AC470937F046093B7
:102C10007E04E11051C50E941F046093BC037093B1
:102C2000BD038093BE039093BF0380918304909172
:102C300084042C0102C0569447940A95E2F782015D
:102C4000242D2170A22E80918604882309F450C47B
:102C500000951095302F3170A32E809183049091B0
:102C60008404880F991F8A29909384048093830495
:102C70008091E2039091E30301969093E3038093A4
:102C8000E2032091C6013091C7014091860444239C
:102C900009F45CC4220F331F821793070CF096C30C
:102CA00013C224E030E03093C7012093C6019FCEC9
:102CB00045E050E05093C7014093C60198CE66E0CE
:102CC00070E07093C7016093C60191CE88E090E0F8
:102CD0009093C7018093C6018ACE8FEF9FEF0E9429
:102CE000DD0385CEACE0B0E0B093C701A093C60190
:102CF0007ECE81E090E0F3CFE0E1F0E071CEB090E5
:102D00000704BB2009F445C086E790E001301105B7
:102D100029F00330110539F484E890E00E9423077C
:102D2000F092060464CE82E990E006301105B1F31A
:102D300080EA90E00830110589F38EEA90E00A30CD
:102D4000110561F30230110559F0C801049702978B
:102D500038F00730110521F0C8018D7F0997B1F4D3
:102D6000C80102978A30910578F487519E4FDC01A3
:102D7000CC900C2C000CDD08D7FC06C00E9405048A
:102D8000BC01C6010E941F08F0920604BB24B39444
:102D90002ECEB0900504BB20C9F386E790E0013049
:102DA0001105A1F084E890E00330110579F082E983
:102DB00090E00630110551F080EA90E008301105EE
:102DC00029F00A30110529F48EEA90E00E94CB091F
:102DD000A7CF0230110559F0C8010497029738F0C7
:102DE0000730110521F0C8018D7F099779F6C801D8
:102DF00002978A30910540F687519E4FFC018081F1
:102E0000082E000C990B97FDBFCFBE016D5F7F4F61
:102E10000E945E06882309F4B7CFBE016F5F7F4F23
:102E200088E690E00E945E06882309F4ADCF898190
:102E30009A81853A954A09F0A7CF8B819C819C01A4
:102E4000215031092E3F3F4F08F09ECF0E94C90507
:102E50009BCFB11030C08091050481112CC08091AE
:102E60000704811128C0AF85B889AD90BD90CD9081
:102E7000DC90A114B104C104D104E9F00E94B601B0
:102E8000F801E950FC4F20816A197B098C099D09E2
:102E90006032734081059105B0F0222361F0108209
:102EA0008091F5039091F60301979093F603809338
:102EB000F5030E94E604EF85F889108211821282E0
:102EC0001382BB8894CD2111F6CFF0828091F50357
:102ED0009091F6030196E9CFCD2809F088CD56CF21
:102EE0009110F0CDA3019201281B390B4A0B5B0B0B
:102EF000DA01C90186399105A105B10508F4E2CDD1
:102F000081E080930504DECD0097A105B10509F4A9
:102F1000D9CD992059F0109205041092F103109226
:102F2000F2031092F3031092F403CCCDB301A2018B
:102F3000481B590B6A0B7B0BDB01CA0186399105D3
:102F4000A105B10550F7809106048111E6CF80916B
:102F5000C4019091C50120918D04222389F0209114
:102F6000EF033091F003820F931F2F5F3F4F0497C1
:102F7000A4F63093F0032093EF030E94E604CDCF34
:102F80008430910554F601969093C5018093C40155
:102F90004091EF035091F00324E030E0281B390BFF
:102FA0004217530734F79A01E4CF20910704211107
:102FB000A3CD481A590A6A0A7B0A56E945165104F4
:102FC0006104710408F498CD81E08093070494CDE6
:102FD0000097A105B10509F48FCD209107042223A4
:102FE00059F0109207041092EB031092EC03109228
:102FF000ED031092EE0380CD481A590A6A0A7B0A43
:1030000066E9461651046104710468F7809106046C
:103010008111E9CF809105048111E5CF80918D0464
:10302000882379F08091EF039091F0031816190628
:10303000D4F601979093F0038093EF030E94E60487
:10304000D2CF8091C4019091C501823091055CF28C
:1030500001979093C5018093C401F0CF80917E04C5
:1030600090917F04909384048093830421E030E066
:103070003093E3032093E2031092080480917D04CF
:10308000882309F4A8C08091E0039091E10360E1F6
:1030900070E00E941D1FFC01EE0FFF1FE054FC4F6B
:1030A0006081718190E080E00E949E1D2FE338EAEC
:1030B0004FE454E40E94F61C6093BC037093BD037C
:1030C0008093BE039093BF03B092E40380918D047C
:1030D000882329F18EE00E944A0120917504222361
:1030E00091F02091760430917704AC01421B530B90
:1030F0009A0157FF03C03195219531092F313105D0
:1031000074F010927504803191050CF024C2109275
:10311000B8031092B9031092BA031092BB030E9435
:103120005F016F83788789879A878091B403909134
:10313000B503A091B603B091B7032F8038844984BA
:103140005A84281A390A4A0A5B0AD201C101843F0B
:103150009140A105B10510F40C94B50E2090B80370
:103160003090B9034090BA035090BB032B863C8645
:103170004D865E864090BC035090BD036090BE03B8
:103180007090BF0320E030E0A9016B857C858D85C0
:103190009E850E94F11C882381F08090B00390905E
:1031A000B103A090B203B090B303A3019201C50193
:1031B000B4010E94F11C811109C24092B0035092E7
:1031C000B1036092B2037092B3032FC28091810465
:1031D0009091820447CFA091C601B091C7010A2EF9
:1031E00002C0220F331F0A94E2F721503109809167
:1031F00083049091840428233923A830B1055CF01E
:10320000189702C036952795AA95E2F7E22F8E2FE0
:103210000E941F0451CFE22FA430B10559F1B4F43C
:103220001397A9F72770422F50E09A0165E0220F0B
:10323000331F6A95E1F7FA01EE0FFF1FEE0FFF1F34
:103240002E2B55954795E22FE42BE1CFA530B10504
:10325000C1F01697E1F62F73622F70E0FB01EE0FBD
:10326000FF1FEE0FFF1F24E0759567952A95E1F784
:10327000E62BCDCF2F7070E1279FF0011124E22BB8
:10328000C6CF2F71E22FF0E09F0143E0220F331FE2
:103290004A95E1F7F595E795F595E795F0CFFF208D
:1032A00009F46FCC80917D04882309F46ECC0091E1
:1032B000C6011091C701509085046801552011F096
:1032C000CC0CDD1C81E1C816D1041CF0B0E1CB2E82
:1032D000D12C8090E2039090E3038091E0039091E1
:1032E000E103880D991DB6010E941D1F3C012F802E
:1032F000222029F19801215031092819390981E04A
:1033000090E002C0880F991F2A95E2F7809590956A
:103310002091830430918404822393239093840426
:1033200080938304FF2009F456C090937F04809318
:103330007E040E94E6041092E1031092E003EE2066
:1033400009F1015011090819190981E090E002C042
:10335000880F991F0A95E2F7209183043091840425
:10336000822B932B9093840480938304FF20D9F1C4
:1033700090937F0480937E040E94E6041092E10300
:103380001092E003F301EE0FFF1FE054FC4F608149
:10339000718190E080E00E949E1D2FE338EA4FE4A7
:1033A00054E40E94F61C6093BC037093BD038093A9
:1033B000BE039093BF030FEF801A900A9092E3032D
:1033C0008092E2038C149D040CF47ECE1092E303F1
:1033D0001092E20379CE552009F4ABCF909382048A
:1033E00080938104A6CF552039F290938204809374
:1033F0008104C2CF822F0430110561F1B4F403308F
:10340000110509F0E2CB277030E0C90145E0880FD3
:10341000991F4A95E1F7F901EE0FFF1FEE0FFF1F0D
:103420008E2B35952795822BD0CB05301105C1F019
:103430000630110509F0C9CB2F73A22FB0E0CD01E2
:10344000880F991F880F991FF4E0B595A795FA95F5
:10345000E1F713C02F7030E1239FC0011124E3CFA7
:103460002F71A22FB0E0CD0123E0880F991F2A957C
:10347000E1F7B595A795B595A7958A2BA6CB909121
:103480008504992321F07093820460938104EE20D7
:1034900009F4C1CB622B732B709384046093830473
:1034A00090918504992309F4B6CB709382046093BC
:1034B0008104B1CBEE2009F4AECB2091E203309130
:1034C000E303A801421B530B21E030E002C0220FAE
:1034D000331F4A95E2F7622B732B70938404609339
:1034E0008304FF20E9F270937F0460937E0493CB02
:1034F00020E030E0A9016091CE017091CF01809170
:10350000D0019091D1010E94501E18160CF0A5CB4D
:103510000E94B31B28EE33E040E050E00E94211CE3
:103520006B0120E030E04AE754E46091CE017091F5
:10353000CF018091D0019091D1010E94551E0E942F
:10354000681DC616D7060CF483CB87CB821793076A
:103550000CF03CCFB9CDBC018D3F934014F06CEF23
:1035600073E060517109072E000C880B990B0E94C3
:10357000A01D20E030E04BE754E40E94F61C9B01C4
:10358000AC010E94551E20E030E047E453E40E9465
:10359000551E20E030E040E85FE30E94851C9B015F
:1035A000AC0160E070E080E89FE30E94F61C20E040
:1035B00030E040E05FE30E94551E6093B8037093D3
:1035C000B9038093BA039093BB03A9CDA5019401DD
:1035D000C301B2010E94841C6B017C0120E030E039
:1035E000A9010E94501E18160CF040C02FE632E1CF
:1035F00043E85AE3C701B6010E94501E18160CF0AA
:10360000DCCDA70196016B857C858D859E850E940A
:10361000551EA50194010E94851C6093B003709310
:10362000B1038093B2039093B3032FE338EA4FE4DE
:1036300054E46091B0037091B1038091B203909112
:10364000B3030E94551E0E94681DCB010E94FE0517
:103650004F80588469847A844092B4035092B503B1
:103660006092B6037092B7030C94B50E2FE632E168
:1036700043E85AEBC701B6010E94F11C87FF9DCDBC
:10368000C0CF892B11F40C94BD0E62E370E080E092
:1036900090E00E9484010C94C40B992311F40C94C3
:1036A000B51210928D048EE00E944A0190938B0413
:1036B00080938A040C94B512622B732B709384044C
:1036C0006093830410CF31E03C8B0C94EB128F920B
:1036D0009F92AF92BF92CF92DF92EF92FF92CF93E1
:1036E000DF93EC01688179818A819B816115710585
:1036F0008105910521F464E279ED8BE597E02DE1F8
:1037000033EF41E050E00E94211C49015A019B0126
:10371000AC01A7EAB1E40E94401C6B017C01ACEE55
:10372000B4EFA50194010E944E1CC60ED71EE81EE0
:10373000F91EF7FE06C081E0C81AD108E10880E84A
:10374000F80AC882D982EA82FB82C701B6019F7754
:10375000DF91CF91FF90EF90DF90CF90BF90AF902F
:103760009F908F9008958F929F92AF92BF92CF9229
:10377000DF92EF92FF926091D8017091D901809110
:10378000DA019091DB01611571058105910521F444
:1037900064E279ED8BE597E02DE133EF41E050E015
:1037A0000E94211C49015A019B01AC01A7EAB1E426
:1037B0000E94401C6B017C01ACEEB4EFA5019401AA
:1037C0000E944E1CC60ED71EE81EF91EF7FE06C04C
:1037D00081E0C81AD108E10880E8F80AC092D8014F
:1037E000D092D901E092DA01F092DB01C701B60173
:1037F0009F77FF90EF90DF90CF90BF90AF909F901A
:103800008F9008956093D8017093D9018093DA0165
:103810009093DB010895F999FECF92BD81BDF89A8E
:10382000992780B50895262FF999FECF1FBA92BD2A
:1038300081BD20BD0FB6F894FA9AF99A0FBE019691
:103840000895052E97FB1EF400940E94381C57FD26
:1038500007D00E94531C07FC03D04EF40C94381C74
:1038600050954095309521953F4F4F4F5F4F0895AC
:1038700090958095709561957F4F8F4F9F4F0895DC
:103880000E94751CA59F900DB49F900DA49F800D64
:10389000911D11240895B7FF0C94401C0E94401CF8
:1038A000821B930B0895A1E21A2EAA1BBB1BFD01DC
:1038B0000DC0AA1FBB1FEE1FFF1FA217B307E4070F
:1038C000F50720F0A21BB30BE40BF50B661F771F67
:1038D000881F991F1A9469F7609570958095909547
:1038E0009B01AC01BD01CF010895A29FB001B39F20
:1038F000C001A39F700D811D1124911DB29F700DF9
:10390000811D1124911D08955058BB27AA270E949C
:103910009C1C0C94161E0E94081E38F00E940F1E5C
:1039200020F039F49F3F19F426F40C94051E0EF490
:10393000E095E7FB0C94FF1DE92F0E94271E58F32A
:10394000BA17620773078407950720F079F4A6F584
:103950000C94491E0EF4E0950B2EBA2FA02D0B01EE
:10396000B90190010C01CA01A0011124FF27591BC4
:1039700099F0593F50F4503E68F11A16F040A22FCA
:10398000232F342F4427585FF3CF4695379527953B
:10399000A795F0405395C9F77EF41F16BA0B620B3A
:1039A000730B840BBAF09150A1F0FF0FBB1F661F81
:1039B000771F881FC2F70EC0BA0F621F731F841FC4
:1039C00048F4879577956795B795F7959E3F08F0EA
:1039D000B0CF9395880F08F09927EE0F97958795AC
:1039E00008950E94DB1D08F481E008950E940A1DDD
:1039F0000C94161E0E940F1E58F00E94081E40F0E4
:103A000029F45F3F29F00C94FF1D51110C944A1EBC
:103A10000C94051E0E94271E68F39923B1F35523C9
:103A200091F3951B550BBB27AA27621773078407D1
:103A300038F09F5F5F4F220F331F441FAA1FA9F367
:103A400035D00E2E3AF0E0E832D091505040E69555
:103A5000001CCAF72BD0FE2F29D0660F771F881FB6
:103A6000BB1F261737074807AB07B0E809F0BB0BA9
:103A7000802DBF01FF2793585F4F3AF09E3F5105BD
:103A800078F00C94FF1D0C944A1E5F3FE4F3983EBF
:103A9000D4F3869577956795B795F7959F5FC9F7A6
:103AA000880F911D9695879597F90895E1E0660F27
:103AB000771F881FBB1F621773078407BA0720F0A0
:103AC000621B730B840BBA0BEE1F88F7E095089509
:103AD0000E946F1D6894B1110C944A1E08950E94B3
:103AE0002F1E88F09F5798F0B92F9927B751B0F043
:103AF000E1F0660F771F881F991F1AF0BA95C9F772
:103B000014C0B13091F00E94491EB1E008950C94A8
:103B1000491E672F782F8827B85F39F0B93FCCF35B
:103B2000869577956795B395D9F73EF490958095EE
:103B3000709561957F4F8F4F9F4F0895E89409C00E
:103B400097FB3EF490958095709561957F4F8F4FD0
:103B50009F4F9923A9F0F92F96E9BB279395F695E6
:103B6000879577956795B795F111F8CFFAF4BB0F64
:103B700011F460FF1BC06F5F7F4F8F4F9F4F16C0C8
:103B8000882311F096E911C0772321F09EE8872F52
:103B9000762F05C0662371F096E8862F70E060E00E
:103BA0002AF09A95660F771F881FDAF7880F969587
:103BB000879597F90895990F0008550FAA0BE0E82B
:103BC000FEEF16161706E807F907C0F012161306DF
:103BD000E407F50798F0621B730B840B950B39F41F
:103BE0000A2661F0232B242B252B21F408950A2685
:103BF00009F4A140A6958FEF811D811D089597F9C5
:103C00009F6780E870E060E008959FEF80EC089582
:103C100000240A94161617061806090608950024AB
:103C20000A9412161306140605060895092E039425
:103C3000000C11F4882352F0BB0F40F4BF2B11F499
:103C400060FF04C06F5F7F4F8F4F9F4F089557FDF8
:103C50009058440F551F59F05F3F71F04795880FFA
:103C600097FB991F61F09F3F79F087950895121691
:103C700013061406551FF2CF4695F1DF08C016163D
:103C800017061806991FF1CF8695710561050894EE
:103C90000895E894BB2766277727CB0197F9089505
:103CA0000E94DB1D08F48FEF08950E94681E0C949B
:103CB000161E0E94081E38F00E940F1E20F0952349
:103CC00011F00C94FF1D0C94051E11240C944A1E37
:103CD0000E94271E70F3959FC1F3950F50E0551F6A
:103CE000629FF001729FBB27F00DB11D639FAA2751
:103CF000F00DB11DAA1F649F6627B00DA11D661FA0
:103D0000829F2227B00DA11D621F739FB00DA11DC0
:103D1000621F839FA00D611D221F749F3327A00D7A
:103D2000611D231F849F600D211D822F762F6A2F16
:103D300011249F5750409AF0F1F088234AF0EE0F7B
:103D4000FF1FBB1F661F771F881F91505040A9F7A8
:103D50009E3F510580F00C94FF1D0C944A1E5F3F5E
:103D6000E4F3983ED4F3869577956795B795F795E4
:103D7000E7959F5FC1F7FE2B880F911D969587955C
:103D800097F9089519F416F40C94051E0C94081F65
:103D90000E942F1EB8F39923C9F3B6F39F57550B12
:103DA00087FF0E94161F0024A0E640EA9001805879
:103DB0005695979528F4805C660F771F881F20F032
:103DC00026173707480730F4621B730B840B202932
:103DD00031294A2BA69517940794202531254A2787
:103DE00058F7660F771F881F20F0261737074807F8
:103DF00030F4620B730B840B200D311D411DA09517
:103E000081F7B901842F9158880F96958795089569
:103E10009F3F31F0915020F4879577956795B7953E
:103E2000880F911D9695879597F908959150504068
:103E3000660F771F881FD2F7089597FB072E16F499
:103E4000009407D077FD09D00E94371F07FC05D0EA
:103E50003EF4909581959F4F0895709561957F4FA1
:103E60000895EE0FFF1F0590F491E02D0994AA1B11
:103E7000BB1B51E107C0AA1FBB1FA617B70710F055
:103E8000A61BB70B881F991F5A95A9F78095909587
:103E9000BC01CD0108950F931F93CF93DF93823020
:103EA000910510F482E090E0E091FF04F0910005AC
:103EB00030E020E0B0E0A0E0309799F42115310522
:103EC00009F44AC0281B390B24303105D8F58A8102
:103ED0009B816115710589F1FB0193838283FE014A
:103EE00011C0408151810281138148175907E0F0C8
:103EF0004817590799F4109761F012960C9312978E
:103F000013961C933296CF01DF91CF911F910F91A1
:103F100008950093FF0410930005F4CF2115310597
:103F200051F04217530738F0A901DB019A01BD0196
:103F3000DF01F801C1CFEF01F9CF90930005809325
:103F4000FF04CDCFFE01E20FF31F81939193225026
:103F5000310939832883D7CF2091FD043091FE04A5
:103F6000232B41F42091DE013091DF013093FE04D8
:103F70002093FD042091DC013091DD0121153105F4
:103F800041F42DB73EB74091E0015091E101241B6F
:103F9000350BE091FD04F091FE04E217F307A0F465
:103FA0002E1B3F0B2817390778F0AC014E5F5F4F8F
:103FB0002417350748F04E0F5F1F5093FE044093BF
:103FC000FD04819391939FCFF0E0E0E09CCFCF93ED
:103FD000DF930097E9F0FC01329713821282A091DF
:103FE000FF04B0910005ED0130E020E01097A1F44E
:103FF00020813181820F931F2091FD043091FE04B6
:104000002817390709F061C0F093FE04E093FD041E
:10401000DF91CF910895EA01CE17DF07E8F54A81D5
:104020005B819E0141155105B1F7E901FB83EA83EC
:1040300049915991C40FD51FEC17FD0761F4808198
:1040400091810296840F951FE9019983888382816B
:1040500093819B838A83F0E0E0E012968D919C919E
:1040600013970097B9F52D913C911197CD010296C8
:10407000820F931F2091FD043091FE042817390709
:1040800039F6309751F5109200051092FF04B09365
:10409000FE04A093FD04BCCFD383C2834081518131
:1040A000840F951FC817D90761F44E5F5F4F888151
:1040B0009981480F591F518340838A819B81938343
:1040C00082832115310509F0B0CFF0930005E0930C
:1040D000FF049ECFFD01DC01C0CF13821282D7CF37
:0440E000F894FFCF82
:1040E40000000000E7FBA93D0C022B3E0000803ECF
:1040F400FA7EAA3E0681D53E0000003F7D3F153F73
:1041040083C02A3F0000403F7D3F553F83C06A3F44
:104114000000803FBE9F8A3F4260953F0000A03F61
:10412400BE9FAA3F4260B53F0000C03FBE9FCA3F4A
:104134004260D53F0000E03FBE9FEA3F4260F53F4A
:1041440000000040DF4F054021B00A40000010404D
:10415400DF4F154021B01A4000002040DF4F2540BA
:1041640021B02A4000003040DF4F354021B03A40B2
:1041740000004040DF4F454021B04A40000050401D
:10418400DF4F554021B05A4000006040DF4F65408A
:1041940021B06A4000007040DF4F754021B07A4082
:1041A400000080400100080000020200000200003C
:1041B400003F0000003F0002010000000000010574
:1041C4008000320939300C18246AFF6C6EFF70FFCE
:1041D40072FF74020304050607080000000086034A
:0C41E4005903B5032F0352033F033003BF
:00000001FF
